:100000000C9463000C948B000C948B000C9479037B
:100010000C9479030C9479030C948B000C948B0052
:100020000C948B000C948B000C948B000C948B0024
:100030000C948B000C948B000C948B000C948B0014
:100040000C94D7020C948B000C9447030C9421035E
:100050000C948B000C948B000C948B000C948B00F4
:100060000C948B000C948B000000000024002700EF
:100070002A0000000008000201000003040700003D
:1000800000000000000000000000250028002B00F8
:1000900000000000230026002900040404040404D6
:1000A0000404020202020202030303030303010227
:1000B00004081020408001020408102001020408F6
:1000C0001020F303FA0511241FBECFEFD8E0DEBFE6
:1000D000CDBF11E0A0E0B1E0E8E8FCE002C005908F
:1000E0000D92A032B107D9F722E0A0E2B1E001C041
:1000F0001D92AA32B207E1F710E0C2E6D0E004C0D8
:100100002197FE010E942C06C136D107C9F70E9433
:100110009E040C9437060C940000CF92DF92EF926D
:10012000FF920F931F93CF93DF936C017A018B01A2
:10013000C0E0D0E0CE15DF0589F0D8016D918D01CA
:10014000D601ED91FC910190F081E02DC601099559
:10015000892B11F47E0102C02196ECCFC701DF91FB
:10016000CF911F910F91FF90EF90DF90CF90089566
:10017000FC01918D828D981761F0828DDF01A80FAF
:10018000B11D5D968C91928D9F5F9F73928F90E0D1
:1001900008958FEF9FEF0895FC01918D828D981740
:1001A00031F0828DE80FF11D858D90E008958FEF7D
:1001B0009FEF0895FC01918D228D892F90E0805C46
:1001C0009F4F821B91098F73992708958EE691E0C6
:1001D0000E94DA0021E0892B09F420E0822F0895A3
:1001E000FC01848DDF01A80FB11DA35ABF4F2C91D4
:1001F000848D90E001968F739927848FA689B789A3
:100200002C93A089B1898C9180648C93938D848D7B
:10021000981306C00288F389E02D80818F7D80834A
:100220000895EF92FF920F931F93CF93DF93EC010A
:1002300081E0888F9B8D8C8D981305C0E889F989A2
:10024000808185FD24C0F62E0B8D10E00F5F1F4FBF
:100250000F731127E02E8C8DE8120CC00FB607FC2F
:10026000FACFE889F989808185FFF5CFCE010E9418
:10027000F000F1CF8B8DFE01E80FF11DE35AFF4F27
:10028000F0820B8FEA89FB898081806207C0EE894A
:10029000FF896083E889F98980818064808381E0B7
:1002A00090E0DF91CF911F910F91FF90EF90089513
:1002B000CF93DF93EC01888D8823C9F0EA89FB890D
:1002C000808185FD05C0A889B9898C9186FD0FC004
:1002D0000FB607FCF5CF808185FFF2CFA889B989D9
:1002E0008C9185FFEDCFCE010E94F000E7CFDF912A
:1002F000CF91089580E090E0892B29F00E94E600DC
:1003000081110C9400000895833081F028F481302D
:1003100099F08230A1F008958730A9F08830B9F0C3
:100320008430D1F4809180008F7D03C08091800063
:100330008F7780938000089584B58F7702C084B54D
:100340008F7D84BD08958091B0008F7703C0809128
:10035000B0008F7D8093B00008951F93CF93DF93FB
:10036000282F30E0F901EE58FF4F8491F901E25552
:10037000FF4FD491F901E656FF4FC491CC23C9F049
:10038000162F81110E948401EC2FF0E0EE0FFF1F69
:10039000EA57FF4FA591B4918FB7F894111105C09A
:1003A0009C91ED2FE095E92302C0EC91ED2BEC93AD
:1003B0008FBFDF91CF911F910895CF93DF9390E08E
:1003C000FC01E255FF4F2491FC01E656FF4F84915A
:1003D000882361F190E0880F991FFC01E859FF4FD5
:1003E000C591D491FC01EA57FF4FA591B4916111D9
:1003F00009C09FB7F8948881209582238883EC9167
:100400002E230BC0623061F49FB7F8943881822F9D
:10041000809583238883EC912E2B2C939FBF06C05D
:100420008FB7F894E8812E2B28838FBFDF91CF916F
:10043000089520916201309163012817390771F402
:100440009091600180916101981741F0E091600105
:10045000F0E0E05EFE4F808190E008958FEF9FEF27
:10046000089508951F93CF93DF93DC015C962D913F
:100470003C915D972115310539F481E090E01396A8
:100480009C938E9312973DC05196ED91FC9152979B
:1004900050969C915097892F80951FB75E964C91EE
:1004A0005E9741FB772770F941FD6095F894408194
:1004B000772311F0492B01C048234083E90121979C
:1004C000F1F748E0508160FF02C0592B01C058236A
:1004D0005083E9012197F1F76695415099F7772309
:1004E00021F090818923808303C08081982B9083A1
:1004F0001FBF5C968D919C915D970197F1F721E06C
:1005000030E0C901DF91CF911F91089520916201E0
:10051000309163012817390771F4809161012091AE
:10052000600190E0805C9F4F821B910960E470E065
:100530000E940406089580E090E0089520916201F1
:100540003091630128173907B9F4909160018091C7
:100550006101981789F0E0916001F0E0E05EFE4FE4
:1005600080812091600130E02F5F3F4F2F73332750
:100570002093600190E008958FEF9FEF0895E09140
:100580006201F0916301E817F90769F4A389B4895E
:100590009C918589809589238C9310926301109298
:1005A000620181E0089580E008950E9432061F9262
:1005B0000F920FB60F9211242F933F938F939F9317
:1005C000AF93BF9380916A0190916B01A0916C01F0
:1005D000B0916D013091690123E0230F2D3720F494
:1005E0000196A11DB11D05C026E8230F0296A11D8D
:1005F000B11D2093690180936A0190936B01A093D0
:100600006C01B0936D018091650190916601A0919C
:100610006701B09168010196A11DB11D809365012C
:1006200090936601A0936701B0936801BF91AF9169
:100630009F918F913F912F910F900FBE0F901F9020
:1006400018951F920F920FB60F9211242F933F937C
:100650004F935F936F937F938F939F93AF93BF93CA
:10066000EF93FF938EE691E00E94F000FF91EF91EF
:10067000BF91AF919F918F917F916F915F914F91BA
:100680003F912F910F900FBE0F901F9018951F92C2
:100690000F920FB60F9211242F938F939F93EF9386
:1006A000FF93E0917E01F0917F018081E0918401D0
:1006B000F091850182FD12C09081809187018F5F4A
:1006C0008F7320918801821751F0E0918701F0E04B
:1006D000E259FE4F958F8093870101C08081FF9181
:1006E000EF919F918F912F910F900FBE0F901F90C0
:1006F00018951F920F920FB60F9211242F933F93CC
:100700004F935F936F937F938F939F93AF93BF9319
:10071000EF93FF93E0916201F0916301309709F448
:1007200051C0968DA685B785858591FF04C09C91A3
:10073000892329F447C09C91892309F043C0A389E8
:10074000B4899C918589809589238C938689978922
:100750000197F1F7608D718DA685B785558538E0D5
:1007600020E0CB010197F1F7822F90E095958795D6
:10077000282F4C91452309F02068315091F7868D40
:1007800081FD20958091610190E001968F739927FA
:1007900030916001381749F0A0916101B0E0A05E8E
:1007A000BE4F2C938093610103C0868D8160868F3C
:1007B000828D938D0197F1F7A389B4899C918589E6
:1007C000892B8C93FF91EF91BF91AF919F918F9166
:1007D0007F916F915F914F913F912F910F900FBE3D
:1007E0000F901F901895109271011092700188EE71
:1007F00093E0A0E0B0E08093720190937301A09326
:100800007401B093750124E031E030936F012093BF
:100810006E0125EC30E030937B0120937A0124ECCB
:1008200030E030937D0120937C0120EC30E0309368
:100830007F0120937E0121EC30E0309381012093F1
:10084000800122EC30E0309383012093820126EC7A
:1008500030E030938501209384011092870110923B
:1008600088011092890110928A0110920E02109252
:100870000D0280930F0290931002A0931102B09387
:10088000120284E191E090930C0280930B0210928B
:10089000220210922102109224021092230210923E
:1008A00026021092250210922802109227026091CF
:1008B00029026E7F6D7F609329026695617081E0E9
:1008C00068278BE00E94AD0161E08BE00E94DD01B2
:1008D000E9EBF0E0E491E0931B02E5EAF0E0E4915B
:1008E000F0E0EE0FFF1FEA57FF4F85919491909330
:1008F0001D0280931C0260E08AE00E94DD0180916D
:10090000290281FD04C061E08AE00E94AD018AE015
:1009100080931702E8EBF0E0E491E0931802E4EA38
:10092000F0E0E491F0E0EE0FFF1FE057FF4F8591FC
:10093000949190931A02809319020895789484B543
:10094000826084BD84B5816084BD85B5826085BDCB
:1009500085B5816085BD80916E00816080936E0059
:10096000109281008091810082608093810080914B
:1009700081008160809381008091800081608093FC
:1009800080008091B10084608093B1008091B000BC
:1009900081608093B00080917A00846080937A00B7
:1009A00080917A00826080937A0080917A008160E1
:1009B00080937A0080917A00806880937A00109208
:1009C000C100E0917E01F0917F0182E08083E0919F
:1009D0007A01F0917B011082E0917C01F0917D0120
:1009E0008FEC808310928601E0918201F091830167
:1009F00086E08083E0918001F091810180818061B7
:100A00008083E0918001F091810180818860808302
:100A1000E0918001F0918101808180688083E09184
:100A20008001F091810180818F7D80831092260268
:100A30001092250210922402109223021092220298
:100A40001092210285E690E090932802809327027D
:100A500090911702963108F057C021E230E03093B0
:100A600022022093210223E630E0309324022093D7
:100A7000230222E430E030932602209325022091C5
:100A80006800983050F031E09E3008F430E081E0AA
:100A900001C0880F3A95EAF701C084E0822B809369
:100AA0006800983038F09E3040F0963148F020E0F1
:100AB00030E008C02DE630E005C02BE630E002C093
:100AC0002CE630E030931F0220931E02983030F461
:100AD00081E001C0880F9A95EAF70EC0292F30E017
:100AE0009E3018F42850310902C02E50310981E09F
:100AF00001C0880F2A95EAF780932002809127028F
:100B0000909128020197F1F7809125029091260299
:100B1000892B21F1809162019091630122E08B3059
:100B20009207E1F0009711F00E94BF028091290224
:100B30008E7F8093290210926101109260018BE0F8
:100B400092E09093630180936201E0911E02F09124
:100B50001F02908180912002892B808361E088E0D0
:100B60000E94DD0160E08DE00E94DD01CFE7D0E072
:100B70000BEB10E037EAE32E30E0F32EFE01849118
:100B8000F801C490F701D490DD2069F181110E9431
:100B900084018D2D90E0880F991F80579F4FFC0195
:100BA000A591B4918C91C822F1F08BE092E00E9463
:100BB000860218161906A4F48BE092E00E949E02A9
:100BC00021E0892B09F420E020936401222311F015
:100BD00061E001C060E088E00E94AD011092640114
:100BE0000E947A01CBCF61E088E00E94AD011092B3
:100BF0006401DBCF84E191E090930C0280930B02BF
:100C00008BE092E00C94BF0297FB072E16F4009441
:100C100007D077FD09D00E94180607FC05D03EF4E6
:100C2000909581959F4F0895709561957F4F089598
:100C3000AA1BBB1B51E107C0AA1FBB1FA617B70702
:100C400010F0A61BB70B881F991F5A95A9F780951E
:100C50009095BC01CD010895EE0FFF1F0590F49112
:100C6000E02D099481E090E0F8940C94370610E0B0
:100C7000C2E6D0E004C0FE010E942C062196C336D5
:080C8000D107C9F7F894FFCF7A
:100C88000000000011018D00DA00B800CC00580106
:100C98000000000032028D0086029E021902310215
:107800000C94343C0C94513C0C94513C0C94513CE1
:107810000C94513C0C94513C0C94513C0C94513CB4
:107820000C94513C0C94513C0C94513C0C94513CA4
:107830000C94513C0C94513C0C94513C0C94513C94
:107840000C94513C0C94513C0C94513C0C94513C84
:107850000C94513C0C94513C0C94513C0C94513C74
:107860000C94513C0C94513C11241FBECFEFD8E036
:10787000DEBFCDBF11E0A0E0B1E0ECE9FFE702C060
:1078800005900D92A230B107D9F712E0A2E0B1E065
:1078900001C01D92AD30B107E1F70E942D3D0C945F
:1078A000CC3F0C94003C982F959595959595959582
:1078B000905D8F708A307CF0282F295A8091C0000B
:1078C00085FFFCCF9093C6008091C00085FFFCCF60
:1078D0002093C6000895282F205DF0CF982F809127
:1078E000C00085FFFCCF9093C6000895EF92FF92F1
:1078F0000F931F93EE24FF2487018091C00087FD22
:1079000017C00894E11CF11C011D111D81E4E8164B
:1079100082E4F8068FE0080780E0180770F3E09132
:107920000401F091050109958091C00087FFE9CF1E
:107930008091C6001F910F91FF90EF9008950E94D3
:10794000763C982F8091C00085FFFCCF9093C600B5
:1079500091362CF490330CF09053892F089597555D
:10796000892F08951F930E949F3C182F0E949F3CCF
:107970001295107F810F1F9108951F93182F882350
:1079800021F00E94763C1150E1F71F9108951F935A
:10799000182F0E94763C803249F0809103018F5F5E
:1079A000809303018530C1F01F9108958091C0003C
:1079B00085FFFCCF84E18093C6008091C00085FFE5
:1079C000FCCF1093C6008091C00085FFFCCF80E102
:1079D0008093C6001F910895E0910401F091050184
:1079E00009951F9108950E94763C803241F0809164
:1079F00003018F5F80930301853081F008958091AA
:107A0000C00085FFFCCF84E18093C6008091C00058
:107A100085FFFCCF80E18093C6000895E0910401CA
:107A2000F09105010995089540E951E08823A1F0FE
:107A30002D9A28EE33E0FA013197F1F721503040CA
:107A4000D1F72D9828EE33E0FA013197F1F7215064
:107A50003040D1F7815061F708953F924F925F9285
:107A60006F927F928F929F92AF92BF92CF92DF924E
:107A7000EF92FF920F931F93CF93DF93000080E16B
:107A80008093C4001092C50088E18093C10086E015
:107A90008093C2005098589A259A81E00E94143D24
:107AA00024E1F22E9EE1E92E85E9D82E0FE0C02ECA
:107AB00010E1B12EAA24A394B1E49B2EA6E58A2E50
:107AC000F2E57F2EE0E26E2E79E4572E63E5462E36
:107AD00050E5352E0E94763C8033B1F18133B9F107
:107AE000803409F46FC0813409F476C0823409F41B
:107AF00085C0853409F488C0803531F1823521F1A3
:107B0000813511F1853509F485C0863509F48DC0BC
:107B1000843609F496C0843709F403C1853709F423
:107B200072C1863709F466C0809103018F5F80932C
:107B30000301853079F6E0910401F0910501099582
:107B40000E94763C803351F60E94F33CC3CF0E94E2
:107B5000763C803249F78091C00085FFFCCFF092DF
:107B6000C6008091C00085FFFCCF9092C600809136
:107B7000C00085FFFCCF8092C6008091C00085FFC9
:107B8000FCCF7092C6008091C00085FFFCCF609250
:107B9000C6008091C00085FFFCCF5092C600809146
:107BA000C00085FFFCCF4092C6008091C00085FFD9
:107BB000FCCF3092C6008091C00085FFFCCFB09210
:107BC000C60088CF0E94763C863808F4BDCF0E945C
:107BD000763C0E94F33C7ECF0E94763C803809F4CC
:107BE0009CC0813809F40BC1823809F43CC1883942
:107BF00009F48FC080E00E94C73C6CCF84E10E94F2
:107C0000BD3C0E94F33C66CF85E00E94BD3C0E94D3
:107C1000F33C60CF0E94763C809306010E94763C44
:107C2000809307010E94F33C55CF0E94763C80333D
:107C300009F41DC183E00E94BD3C80E00E94C73C66
:107C400049CF0E94763C809309020E94763C809343
:107C5000080280910C028E7F80930C020E94763C79
:107C6000853409F415C18091080290910902892B8D
:107C700089F000E010E00E94763CF801E85FFE4FDA
:107C800080830F5F1F4F80910802909109020817AF
:107C9000190788F30E94763C803209F045CF809125
:107CA0000C0280FF01C16091060170910701660F0F
:107CB000771F7093070160930601A0910802B091AD
:107CC00009021097C9F0E8E0F1E09B01AD014E0F09
:107CD0005F1FF999FECF32BD21BD819180BDFA9A17
:107CE000F99A2F5F3F4FE417F50799F76A0F7B1F4B
:107CF00070930701609306018091C00085FFFCCF5F
:107D0000F092C6008091C00085FFFCCFB092C60003
:107D1000E1CE83E00E94C73CDDCE82E00E94C73CFA
:107D2000D9CE0E94763C809309020E94763C8093D3
:107D300008028091060190910701880F991F909386
:107D40000701809306010E94763C853409F4A6C0A1
:107D500080910C028E7F80930C020E94763C8032D0
:107D600009F0B8CE8091C00085FFFCCFF092C6002C
:107D7000609108027091090261157105B9F140E046
:107D800050E080910C02A82FA170B82FB27011C0E2
:107D9000BB2309F45CC0E0910601F0910701319624
:107DA000F0930701E09306014F5F5F4F46175707B7
:107DB000E8F4AA2369F3F999FECF209106013091E6
:107DC000070132BD21BDF89A90B58091C00085FFB2
:107DD000FCCF9093C6002F5F3F4F30930701209355
:107DE00006014F5F5F4F4617570718F38091C00099
:107DF00085FDE5CE8091C00085FFF8CFE0CE81E023
:107E00000E94C73C67CE0E94763C803209F08CCE3F
:107E10008091C00085FFFCCFF092C6008091C00029
:107E200085FFFCCFE092C6008091C00085FFFCCFAB
:107E3000D092C6008091C00085FFFCCFC092C600E2
:107E40008091C00085FFFCCFB092C60043CEE09188
:107E50000601F091070194918091C00085FFFCCF4D
:107E60009093C6009CCF80E10E94C73C33CE0E9415
:107E7000763C0E94763C182F0E94763C112309F430
:107E800083C0113009F484C08FE00E94C73C22CE29
:107E900080910C02816080930C02E5CE80910C02EF
:107EA000816080930C0259CF809107018823880F4D
:107EB000880B8A2180930B02809106019091070123
:107EC000880F991F90930701809306018091080203
:107ED00080FF09C080910802909109020196909359
:107EE000090280930802F894F999FECF1127E091D6
:107EF0000601F0910701C8E0D1E08091080290915D
:107F00000902103091F40091570001700130D9F34B
:107F100003E000935700E89500915700017001308D
:107F2000D9F301E100935700E89509901990009169
:107F3000570001700130D9F301E000935700E89534
:107F40001395103498F011270091570001700130FB
:107F5000D9F305E000935700E895009157000170B0
:107F60000130D9F301E100935700E895329602976A
:107F700009F0C7CF103011F00296E5CF112480919F
:107F8000C00085FFB9CEBCCE8EE10E94C73CA2CD19
:0C7F900085E90E94C73C9ECDF894FFCF0D
:027F9C00800063
:040000030000780081
:00000001FF