:100000000C946E0D0C949F0D0C949F0D0C949F0DF1
:100010000C949F0D0C949F0D0C949F0D0C949F0DB0
:100020000C949F0D0C949F0D0C949F0D0C949F0DA0
:100030000C949F0D0C949F0D0C949F0D0C949F0D90
:100040000C949F0D0C949F0D0C949F0D0C949F0D80
:100050000C949F0D0C949F0D0C949F0D0C944C418F
:100060000C949F0D0C949F0D0C949F0D0C949F0D60
:100070000C949F0D0C949F0D0C949F0D0C949F0D50
:100080000C949F0D0C949F0D0C949F0D0C949F0D40
:100090000C949F0D0C949F0D0C949F0D0C949F0D30
:1000A0000C949F0D0C949F0D0C949F0D0C949F0D20
:1000B0000C949F0D0C949F0D0C949F0D0C949F0D10
:1000C0000C949F0D0C949F0D0C949F0D0C949F0D00
:1000D0000C949F0D0C949F0D0C949F0D0C949F0DF0
:1000E0000C949F0DAE42CC4378441D45F445F44535
:1000F00038473F48864C0B49834AD64AB94D634E30
:10010000D64FD64F7844DE56DE567844074FAC5073
:10011000D2464651F9518453DD5210540B551256B4
:1001200027567E498626A426CB26E126E126E1260F
:10013000F8268027862680271B278027292729271E
:1001400046274627CB26A927A927CB26292780275C
:10015000E1265427802780278027802780276E2745
:100160008027802721402440134017401D405B40DA
:1001700028402C40324036403A40404044404840BD
:100180005B404E40524056400000200023002600B5
:1001900029002C002F00320000010000030106019D
:1001A0000901080C205F00000000000000000000B2
:1001B0000000000020202020202000200000002837
:1001C0005050000000000000000000002828FC281B
:1001D00050FC50500000002078A8A0603028A8F003
:1001E0002000000048A8B050283454480000000007
:1001F00020505078A8A8906C00000040408000007B
:10020000000000000000000408101010101010087A
:1002100004000040201010101010102040000000BA
:100220000020A87070A8200000000000202020F806
:10023000202020000000000000000000000000401E
:1002400040800000000000F80000000000000000F6
:100250000000000000000040000000081010102006
:10026000204040408000000070888888888888701E
:1002700000000000206020202020207000000000EE
:1002800070888810204080F80000000070880830D6
:100290000808887000000000103050509078101846
:1002A00000000000F88080F008088870000000005E
:1002B000709080F08888887000000000F89010200E
:1002C00020202020000000007088887088888870B6
:1002D00000000000708888887808487000000000DE
:1002E00000002000000000200000000000000020AE
:1002F0000000002020000004081020402010080406
:10030000000000000000F80000F8000000000040BD
:100310002010080408102040000000007088881099
:100320002020002000000000708898A8A8B88078DD
:100330000000000020203050507848CC0000000021
:10034000F0484870484848F00000000078888080F5
:100350008080887000000000F0484848484848F015
:1003600000000000F8485070504048F800000000BD
:10037000F8485070504040E000000000384880804D
:100380009C88483000000000CC484878484848CC59
:1003900000000000F8202020202020F800000000AD
:1003A0007C10101010101090E0000000EC4850601D
:1003B000505048EC00000000E0404040404044FC09
:1003C00000000000D8D8D8D8A8A8A8A8000000002D
:1003D000DC486868585848E8000000007088888841
:1003E0008888887000000000F0484870404040E075
:1003F000000000007088888888E898701800000065
:10040000F0484870504848EC000000007888806050
:10041000100888F000000000F8A82020202020709C
:1004200000000000CC484848484848300000000020
:10043000CC4848505030202000000000A8A8A870E8
:100440005050505000000000D8505020205050D83C
:1004500000000000D8505020202020700000000034
:10046000F8901020204048F800000038202020207C
:10047000202020203800004040402020101010088C
:1004800000000070101010101010101070000020EC
:10049000500000000000000000000000000000000C
:1004A0000000000000FC0020000000000000000030
:1004B00000000000000000304838483C0000000008
:1004C000C0404070484848700000000000000038FC
:1004D0004840403800000000180808384848483CA8
:1004E00000000000000000304878403800000000A4
:1004F0001C20207820202078000000000000003C14
:100500004830407844380000C0404070484848ECCB
:10051000000000002000006020202070000000008B
:10052000100000301010101010E00000C040405CBF
:10053000507048EC00000000E0202020202020F82F
:1005400000000000000000F0A8A8A8A8000000001B
:10055000000000F0484848EC0000000000000030B7
:100560004848483000000000000000F0484848704B
:1005700040E000000000003848484838081C0000EF
:10058000000000D8604040E000000000000000785B
:100590004030087800000000002020702020201843
:1005A00000000000000000D84848483C000000005F
:1005B000000000EC4850302000000000000000A8BF
:1005C000A870505000000000000000D8502050D803
:1005D00000000000000000EC4850302020C0000067
:1005E0000000007810202078000000181010102063
:1005F0001010101018001010101010101010101003
:10060000101000602020201020202020600040A436
:10061000180000000000000000001010205F000023
:1006200000000000000000000000000000000000CA
:1006300000000000000000000000000000000000BA
:10064000000007000F800F800F800F800F800700D1
:10065000070000000000070007000700000000007E
:100660000E380E380E380E3806300000000000003C
:10067000000000000000000000000000000000007A
:100680000C300C300C307FFE7FFE0C300C300C3008
:100690000C307FFE7FFE0C300C300C300000000070
:1006A000024002400FF81FF81A401A401FF00FF8DE
:1006B000025802581FF81FF00240024000000000DC
:1006C000000000000E100E300E7000E001C003802C
:1006D00007000E700C7008700000000000000000A1
:1006E00000000F001980198019800F000F080F9863
:1006F00019F818F018E019F00F9800000000000039
:1007000000000700070007000E00000000000000C6
:1007100000000000000000000000000000000000D9
:10072000000000F001C0038007000E000E000E0064
:100730000E000700038001C000F000000000000070
:1007400000000F00038001C000E000700070007026
:10075000007000E001C003800F00000000000000F6
:10076000000001801188099007E007E03FFC3FFC92
:1007700007E007E0099011880180000000000000F8
:100780000000000000000180018001800FF00FF0E8
:1007900001800180018000000000000000000000D6
:1007A0000000000000000000000000000000000049
:1007B000000000000700070007000E000000000016
:1007C0000000000000000000000000001FF81FF8FB
:1007D0000000000000000000000000000000000019
:1007E0000000000000000000000000000000000009
:1007F00000000000070007000700000000000000E4
:10080000000000020006000E001C0038007000E02E
:1008100001C0038007000E001C0000000000000063
:1008200000000FF01C381C781CF81CF81DB81DB80F
:100830001F381F381E381C380FF000000000000061
:1008400000000180018003801F801F8003800380DF
:1008500003800380038003801FF00000000000007D
:1008600000000FE01C701C380038007000E001C070
:10087000038007000E381C381FF80000000000003D
:1008800000000FE01C701C380038007003C003C06B
:10089000007000381C381C700FE0000000000000E1
:1008A000000000E001E003E006E00CE018E01FF8C3
:1008B0001FF800E000E000E003F800000000000086
:1008C00000001FF81C001C001C001C001FE01FF093
:1008D000007800381C381C700FE000000000000099
:1008E000000003E007000E001C001C001FF01FF8B2
:1008F0001C381C381C381C380FF0000000000000A9
:1009000000001FFC1C1C1C1C1C1C001C0038007060
:1009100000E001C0038003800380000000000000AD
:1009200000000FF01C381C381C381F3807E007E0A7
:100930001CF81C381C381C380FF0000000000000A8
:1009400000000FF01C381C381C381C381FF80FF83A
:1009500000380038007000E007C000000000000010
:1009600000000000000003800380038000000000FE
:1009700003800380038000000000000000000000EE
:1009800000000000000003800380038000000000DE
:1009900003800380038007000000000000000000C7
:1009A000007000E001C0038007000E001C001C0066
:1009B0000E000700038001C000E00070000000008E
:1009C00000000000000000003FFC3FFC00000000B1
:1009D0003FFC3FFC000000000000000000000000A1
:1009E0001C000E000700038001C000E000700070D2
:1009F00000E001C0038007000E001C0000000000A2
:100A000003C00FF01E7818380038007000E001C0F5
:100A100001C00000000001C001C001C000000000D2
:100A20000FF81C1C1C1C1C1C1C1C1CFC1CFC1CFC97
:100A30001CFC1C001C001C001FF007F8000000003C
:100A4000000003C007E00E701C381C381C381C382E
:100A50001FF81C381C381C381C380000000000002F
:100A600000001FF00E380E380E380E380FF00FF061
:100A70000E380E380E380E381FF00000000000004F
:100A8000000007F00E381C381C001C001C001C0065
:100A90001C001C001C380E3807F00000000000008D
:100AA00000001FE00E700E380E380E380E380E386B
:100AB0000E380E380E380E701FE0000000000000E7
:100AC00000001FF80E180E080E000E300FF00FF089
:100AD0000E300E000E080E181FF800000000000077
:100AE00000001FF80E180E080E000E300FF00FF069
:100AF0000E300E000E000E001F000000000000006F
:100B0000000007F00E381C381C381C001C001C00AC
:100B10001CF81C381C380E3807F8000000000000D4
:100B200000001C701C701C701C701C701FF01FF0EB
:100B30001C701C701C701C701C70000000000000F9
:100B400000000FE0038003800380038003800380A4
:100B500003800380038003800FE00000000000009A
:100B6000000001FC007000700070007000700070E8
:100B700038703870387038700FE0000000000000E6
:100B800000001E380E380E700EE00FC00F800F8070
:100B90000FC00EE00E700E381E380000000000007E
:100BA00000001F000E000E000E000E000E000E00D2
:100BB0000E000E080E180E381FF80000000000008E
:100BC00000001C1C1E3C1F7C1FFC1FFC1DDC1C9C11
:100BD0001C1C1C1C1C1C1C1C1C1C000000000000FD
:100BE00000001C1C1C1C1E1C1F1C1F9C1DDC1CFC54
:100BF0001C7C1C3C1C1C1C1C1C1C0000000000005D
:100C0000000003E007F00E381C1C1C1C1C1C1C1CE4
:100C10001C1C1C1C0E3807F003E000000000000044
:100C200000001FF00E380E380E380E380FF00FF09F
:100C30000E000E000E000E001F000000000000005D
:100C4000000003E00F780E381C1C1C1C1C1C1C1C14
:100C50001C7C1CFC0FF80FF8003800FC00000000A2
:100C600000001FF00E380E380E380E380FF00FF05F
:100C70000E700E380E380E381E38000000000000CE
:100C800000000FF01C381C381C381C000FE007F067
:100C900000381C381C381C380FF000000000000021
:100CA00000001FFC19CC11C401C001C001C001C06B
:100CB00001C001C001C001C007F000000000000039
:100CC00000001C701C701C701C701C701C701C7050
:100CD0001C701C701C701C700FE0000000000000F5
:100CE00000001C701C701C701C701C701C701C7030
:100CF0001C701C700EE007C00380000000000000A4
:100D000000001C1C1C1C1C1C1C1C1C1C1C9C1C9C5B
:100D10001C9C0FF80FF8077007700000000000001F
:100D200000001C701C701C700EE007C00380038064
:100D300007C00EE01C701C701C700000000000005A
:100D400000001C701C701C701C701C700EE007C032
:100D500003800380038003800FE000000000000098
:100D600000001FF81C381838107000E001C0038024
:100D700007000E081C181C381FF8000000000000B7
:100D8000000007F007000700070007000700070042
:100D9000070007000700070007F000000000000040
:100DA0000000100018001C000E000700038001C0A6
:100DB00000E000700038001C000700000000000088
:100DC000000007F00070007000700070007000708C
:100DD000007000700070007007F00000000000005C
:100DE000018003C007E00E701C3800000000000006
:100DF00000000000000000000000000000000000F3
:100E000000000000000000000000000000000000E2
:100E1000000000000000000000007FFF7FFF0000D6
:100E200000001C001C00070007000000000000007C
:100E300000000000000000000000000000000000B2
:100E4000000000000000000000000FE000700070D3
:100E50000FF01C701C701C700FD800000000000008
:100E600000001E000E000E000E000FF00E380E38AF
:100E70000E380E380E380E381BF00000000000004F
:100E8000000000000000000000000FE01C701C705B
:100E90001C001C001C701C700FE000000000000013
:100EA000000000F80070007000700FF01C701C70E3
:100EB0001C701C701C701C700FD80000000000001B
:100EC000000000000000000000000FE01C701C701B
:100ED0001FF01C001C701C700FE0000000000000E0
:100EE000000003E007700770070007001FE01FE025
:100EF00007000700070007001FC0000000000000F7
:100F0000000000000000000000000FD81C701C70E2
:100F10001C701C700FF007F000701C700FE00000D8
:100F200000001E000E000E000E000EF00F380F38ED
:100F30000E380E380E380E381E3800000000000043
:100F4000000001C001C001C000000FC001C001C00D
:100F500001C001C001C001C00FF800000000000086
:100F60000000007000700070000003F0007000705E
:100F700000700070007000701C700CF007E0000042
:100F800000001E000E000E000E000E380E700EE067
:100F90000FC00EE00E700E381E380000000000007A
:100FA00000000FC001C001C001C001C001C001C0EC
:100FB00001C001C001C001C00FF800000000000026
:100FC000000000000000000000001FF81C9C1C9C9A
:100FD0001C9C1C9C1C9C1C9C1C9C00000000000079
:100FE000000000000000000000001FE01C701C70EA
:100FF0001C701C701C701C701C7000000000000035
:10100000000000000000000000000FE01C701C70D9
:101010001C701C701C701C700FE0000000000000B1
:10102000000000000000000000001BF00E380E3829
:101030000E380E380E380FF00E000E001F000000A4
:10104000000000000000000000001FB038E038E0A1
:1010500038E038E038E01FE000E000E001F0000098
:10106000000000000000000000001EF00FF80F3824
:101070000E000E000E000E001F0000000000000019
:10108000000000000000000000000FE01C301C30D9
:101090000F8003E0187018700FE0000000000000DF
:1010A000000000000100030007001FF00700070018
:1010B000070007000770077003E000000000000051
:1010C000000000000000000000001C701C701C707C
:1010D0001C701C701C701C700FD8000000000000F9
:1010E000000000000000000000001C701C701C705C
:1010F0001C701C700EE007C00380000000000000A0
:10110000000000000000000000001C1C1C1C1C1C37
:101110001C9C1C9C0FF8077007700000000000006A
:10112000000000000000000000001CE01CE00FC0F8
:10113000078007800FC01CE01CE0000000000000DA
:10114000000000000000000000000E380E380E38CD
:101150000E380E3807F003E000E001C01F800000E9
:10116000000000000000000000001FE018E011C0B7
:10117000038007000E201C601FE00000000000003C
:10118000000001F803800380038007001C001C009E
:10119000070003800380038001F8000000000000C6
:1011A00001C001C001C001C001C001C001C001C037
:1011B00001C001C001C001C001C001C000000000A9
:1011C00000001F8001C001C001C000E000380038ED
:1011D00000E001C001C001C01F800000000000004D
:1011E00000001F1C3B9C39DC38F8000000000000A8
:1011F000000000000000000000000000000020329D
:10120000300A000000000000000000FFFE0001FFA7
:10121000FF0003FFFF8001FFFF600CFFFEF01E00D8
:1012200001F83F0001F83F0001F83F0001F83F00DE
:1012300001F83F0001F83F0001F83F0001F83F00CE
:1012400001F83F0001F83F0001F83F0001F83F00BE
:1012500001F83F0001F83E00007838000018200037
:1012600000080000000020000000380000183E00C8
:1012700000783F0001F83F0001F83F0001F83F000F
:1012800001F83F0001F83F0001F83F0001F83F007E
:1012900001F83F0001F83F0001F83F0001F83F006E
:1012A00001F83F0001F83F0001F81E0000F00CFFBC
:1012B000FE6001FFFF0003FFFF8001FFFF0000FF52
:1012C000FE00000000000000000000000000000020
:1012D000000000000000000000000000000000000E
:1012E0000060000000F0000001F8000001F80000BC
:1012F00001F8000001F8000001F8000001F800000A
:1013000001F8000001F8000001F8000001F80000F9
:1013100001F8000001F8000001F8000001F80000E9
:101320000078000000180000000800000000000025
:1013300000000000001800000078000001F8000024
:1013400001F8000001F8000001F8000001F80000B9
:1013500001F8000001F8000001F8000001F80000A9
:1013600001F8000001F8000001F8000001F8000099
:1013700001F8000000F00000006000000000000024
:10138000000000000000000000000000000000005D
:101390000000000000000000000000FFFE0001FF50
:1013A000FF0003FFFF8001FFFF6000FFFEF0000071
:1013B00001F8000001F8000001F8000001F8000049
:1013C00001F8000001F8000001F8000001F8000039
:1013D00001F8000001F8000001F8000001F8000029
:1013E00001F8000001F80000007801FFFE1803FF7B
:1013F000FF880FFFFFE027FFFFC039FFFF003E001F
:1014000000003F0000003F0000003F0000003F00E0
:1014100000003F0000003F0000003F0000003F00D0
:1014200000003F0000003F0000003F0000003F00C0
:1014300000003F0000003F0000001E0000000CFF05
:10144000FE0001FFFF0003FFFF8001FFFF0000FF20
:10145000FE0000000000000000000000000000008E
:10146000000000FFFE0001FFFF0003FFFF8001FFFF
:10147000FF6000FFFEF0000001F8000001F800002E
:1014800001F8000001F8000001F8000001F8000078
:1014900001F8000001F8000001F8000001F8000068
:1014A00001F8000001F8000001F8000001F8000058
:1014B000007801FFFE1803FFFF880FFFFFE007FF22
:1014C000FFC001FFFF1800000078000001F80000D5
:1014D00001F8000001F8000001F8000001F8000028
:1014E00001F8000001F8000001F8000001F8000018
:1014F00001F8000001F8000001F8000001F8000008
:1015000001F8000000F000FFFE6001FFFF0003FF94
:10151000FF8001FFFF0000FFFE0000000000000050
:1015200000000000000000000000000000000000BB
:10153000000000000000000000600C0000F01E0031
:1015400001F83F0001F83F0001F83F0001F83F00BB
:1015500001F83F0001F83F0001F83F0001F83F00AB
:1015600001F83F0001F83F0001F83F0001F83F009B
:1015700001F83F0001F83E00007839FFFE1823FF14
:10158000FF880FFFFFE007FFFFC001FFFF1800000B
:101590000078000001F8000001F8000001F80000E8
:1015A00001F8000001F8000001F8000001F8000057
:1015B00001F8000001F8000001F8000001F8000047
:1015C00001F8000001F8000001F8000000F0000040
:1015D00000600000000000000000000000000000AB
:1015E00000000000000000000000000000000000FB
:1015F000000000FFFE0001FFFF0003FFFF8001FF6E
:10160000FF000CFFFE001E0000003F0000003F0036
:1016100000003F0000003F0000003F0000003F00CE
:1016200000003F0000003F0000003F0000003F00BE
:1016300000003F0000003F0000003F0000003E00AF
:10164000000039FFFE0023FFFF800FFFFFE007FFD0
:10165000FFC001FFFF1800000078000001F8000043
:1016600001F8000001F8000001F8000001F8000096
:1016700001F8000001F8000001F8000001F8000086
:1016800001F8000001F8000001F8000001F8000076
:1016900001F8000000F000FFFE6001FFFF0003FF03
:1016A000FF8001FFFF0000FFFE00000000000000BF
:1016B0000000000000000000000000FFFE0001FF2D
:1016C000FF0003FFFF8001FFFF000CFFFE001E0074
:1016D00000003F0000003F0000003F0000003F000E
:1016E00000003F0000003F0000003F0000003F00FE
:1016F00000003F0000003F0000003F0000003F00EE
:1017000000003F0000003E00000039FFFE0023FF04
:10171000FF800FFFFFE027FFFFC039FFFF183E00EB
:1017200000783F0001F83F0001F83F0001F83F005A
:1017300001F83F0001F83F0001F83F0001F83F00C9
:1017400001F83F0001F83F0001F83F0001F83F00B9
:1017500001F83F0001F83F0001F81E0000F00CFF07
:10176000FE6001FFFF0003FFFF8001FFFF0000FF9D
:10177000FE0000000000000000000000000000006B
:10178000000000FFFE0001FFFF0003FFFF8001FFDC
:10179000FF6000FFFEF0000001F8000001F800000B
:1017A00001F8000001F8000001F8000001F8000055
:1017B00001F8000001F8000001F8000001F8000045
:1017C00001F8000001F8000001F8000001F8000035
:1017D0000078000000180000000800000000000071
:1017E00000000000001800000078000001F8000070
:1017F00001F8000001F8000001F8000001F8000005
:1018000001F8000001F8000001F8000001F80000F4
:1018100001F8000001F8000001F8000001F80000E4
:1018200001F8000000F0000000600000000000006F
:1018300000000000000000000000000000000000A8
:101840000000000000000000000000FFFE0001FF9B
:10185000FF0003FFFF8001FFFF600CFFFEF01E0092
:1018600001F83F0001F83F0001F83F0001F83F0098
:1018700001F83F0001F83F0001F83F0001F83F0088
:1018800001F83F0001F83F0001F83F0001F83F0078
:1018900001F83F0001F83E00007839FFFE1823FFF1
:1018A000FF880FFFFFE027FFFFC039FFFF183E0052
:1018B00000783F0001F83F0001F83F0001F83F00C9
:1018C00001F83F0001F83F0001F83F0001F83F0038
:1018D00001F83F0001F83F0001F83F0001F83F0028
:1018E00001F83F0001F83F0001F81E0000F00CFF76
:1018F000FE6001FFFF0003FFFF8001FFFF0000FF0C
:10190000FE000000000000000000000000000000D9
:10191000000000FFFE0001FFFF0003FFFF8001FF4A
:10192000FF600CFFFEF01E0001F83F0001F83F00D1
:1019300001F83F0001F83F0001F83F0001F83F00C7
:1019400001F83F0001F83F0001F83F0001F83F00B7
:1019500001F83F0001F83F0001F83F0001F83E00A8
:10196000007839FFFE1823FFFF880FFFFFE007FF15
:10197000FFC001FFFF1800000078000001F8000020
:1019800001F8000001F8000001F8000001F8000073
:1019900001F8000001F8000001F8000001F8000063
:1019A00001F8000001F8000001F8000001F8000053
:1019B00001F8000000F000FFFE6001FFFF0003FFE0
:1019C000FF8001FFFF0000FFFE000000000000009C
:1019D000000000002100240027002A002D00300014
:1019E000330001010000040107010A0100000A0B95
:1019F00002090C0D0E08070304010000000000009E
:101A000000000000000000000000000000000000D6
:101A10000000000000000000121110000000000093
:101A200000000000000000000000000000000000B6
:101A300000000102102020080810204010204080E3
:101A40000201020108040201010204081020408082
:101A50008040201008040201800402018040201010
:101A60000804020108040201010204081020408059
:101A700001020408102040800000220025002800F8
:101A80002B002E0031003400020100000501080186
:101A90000B010505050507050808080802020202F2
:101AA0000A0A0808040404040101010101010101FA
:101AB0000303030303030303040707070C0C0C0CC5
:101AC0000C0C0C0C020202020606060606060606AE
:101AD0000B0B0B0B0B0B0B0BD1589D5811241FBE7E
:101AE000CFEFD1E2DEBFCDBF00E00CBF25E0ACE61A
:101AF000B4E001C01D92AF38B207E1F714E0A0E0F6
:101B0000B2E0E6EEFCEB00E00BBF02C007900D92E6
:101B1000AC36B107D9F71DE0CDE6DDE000E006C048
:101B200021970109802FFE010E94215CCC36D1074C
:101B300080E00807A9F70E94BE410C94625E0C94F5
:101B40000000CF93DF93CDB7DEB72F970FB6F89491
:101B5000DEBF0FBECDBF0E94B7358823E1F30E94E0
:101B6000E7348C0190937A04809379040E942134A5
:101B70009C019093780480937704045111090931F2
:101B8000114048F786549109C39710F00C948E1DAC
:101B90000E94B34181E090E00E945E3C0E94B73514
:101BA0008823E1F30E94E7348C0190937A048093B8
:101BB00079040E9421349C019093780480937704E7
:101BC000C80144978338910538F4C901845B9109B1
:101BD0004F9738F40C94C11D8931914010F00C944A
:101BE0004A16C901CC97899708F0FBC386E090E0BC
:101BF0000E941E360E94B3410E94B7358823E1F34C
:101C00000E94E7348C0190937A04809379040E94B7
:101C100021349C019093780480937704C801449701
:101C20008338910530F4C901845B91094F9708F41A
:101C3000AFCF0A5A110903381105F0F6245B3109B8
:101C40002F313105C8F60E94393A0E94AB320E940A
:101C5000B34100E010E00E94B7358823E1F30E9411
:101C6000E7347C0190937A04809379040E942134B4
:101C70006C0190937804809377043701BEEB6B1A64
:101C80007108FC01ED57F1094F01F5E66F1671047B
:101C900080F429E28216910408F47ACF0F9789978D
:101CA00040F40E94393A0E94AB320E94B34100E0F6
:101CB00010E0C70144975C01C6010F97899708F0AF
:101CC00056C099E2A916B104C0F4B80181E090E0D1
:101CD0000E94ED33909376048093750446E050E0C3
:101CE000B8010E94BE330F5F1F4F65E570E080E0D2
:101CF00090E00E9414410E94B341C70180559109B0
:101D00008997C0F4B80182E090E00E94ED3390938F
:101D100076048093750446E050E0B8010E94BE331B
:101D20000F5F1F4F65E570E080E090E00E94144176
:101D30000E94B341C7018C5891098997C0F4B8013A
:101D400083E090E00E94ED339093760480937504D5
:101D500046E050E0B8010E94BE330F5F1F4F65E5BB
:101D600070E080E090E00E9414410E94B34126019F
:101D7000A6E44A1A5108B9E24B16510408F056C0BD
:101D8000E9E2AE16B104C0F4B80184E090E00E942C
:101D9000ED33909376048093750446E050E0B801EB
:101DA0000E94BE330F5F1F4F65E570E080E090E05A
:101DB0000E9414410E94B341C7018055910989973F
:101DC000C0F4B80185E090E00E94ED339093760472
:101DD0008093750446E050E0B8010E94BE330F5F67
:101DE0001F4F65E570E080E090E00E9414410E9482
:101DF000B341C7018C5891098997C0F4B80186E0B6
:101E000090E00E94ED33909376048093750446E051
:101E100050E0B8010E94BE330F5F1F4F65E570E0D0
:101E200080E090E00E9414410E94B341F9E28F16D5
:101E3000910408F058C029E2A216B104C0F4B80118
:101E400087E090E00E94ED339093760480937504D0
:101E500046E050E0B8010E94BE330F5F1F4F65E5BA
:101E600070E080E090E00E9414410E94B341C701FD
:101E7000805591098997C0F4B80188E090E00E94EC
:101E8000ED33909376048093750446E050E0B801FA
:101E90000E94BE330F5F1F4F65E570E080E090E069
:101EA0000E9414410E94B3413CE8E31AF10849E260
:101EB000E416F104C0F4B80189E090E00E94ED332B
:101EC000909376048093750446E050E0B8010E9438
:101ED000BE330F5F1F4F65E570E080E090E00E9429
:101EE00014410E94B3418DE3A816B104F8F49FEAAF
:101EF000C91AD108AFE1CA16D104C0F4B80180E014
:101F000090E00E94ED33909376048093750446E050
:101F100050E0B8010E94BE330F5F1F4F65E570E0CF
:101F200080E090E00E9414410E94B341B5E66B1638
:101F3000710408F090CEE9E24E16510408F08BCE01
:101F40005BE5A52E55E0B52EC50121E0FC01668DAF
:101F5000778D0296408151816417750709F020E062
:101F6000F5E087369F0791F7222309F42DC20E94DE
:101F7000393A0E94B2330E94B34160ED77E080E0CD
:101F800090E00E94144186E090E00E941E360E947C
:101F9000B7358823E1F30E94E7348C0190937A04EB
:101FA000809379040E9421349C019093780480935B
:101FB0007704C8018A5A91098338910508F0F7C15E
:101FC000C901845B91094F9708F0F1C10E94AB32BF
:101FD0000E94B34100E010E00E94B7358823E1F38E
:101FE0000E94E7347C0190937A04809379040E94E4
:101FF00021346C01909378048093770427012EEBB1
:10200000421A51088D5791093C0195E64916510431
:1020100088F4A9E26A16710408F4BACDC6010F97D4
:10202000899740F40E94393A0E94AB320E94B34132
:1020300000E010E0F70174974F01C6010F978997F0
:1020400008F056C0F9E28F169104C0F4B80181E09F
:1020500090E00E94ED33909376048093750446E0FF
:1020600050E0B8010E94BE330F5F1F4F65E570E07E
:1020700080E090E00E9414410E94B341C701805566
:1020800091098997C0F4B80182E090E00E94ED3395
:10209000909376048093750446E050E0B8010E9466
:1020A000BE330F5F1F4F65E570E080E090E00E9457
:1020B00014410E94B341C7018C5891098997C0F41B
:1020C000B80183E090E00E94ED3390937604809312
:1020D000750446E050E0B8010E94BE330F5F1F4F09
:1020E00065E570E080E090E00E9414410E94B341F9
:1020F000160126E4221A310839E22316310408F0C9
:1021000056C049E284169104C0F4B80184E090E01E
:102110000E94ED33909376048093750446E050E07E
:10212000B8010E94BE330F5F1F4F65E570E080E08D
:1021300090E00E9414410E94B341C701805591096B
:102140008997C0F4B80185E090E00E94ED33909348
:1021500076048093750446E050E0B8010E94BE33D7
:102160000F5F1F4F65E570E080E090E00E94144132
:102170000E94B341C7018C5891098997C0F4B801F6
:1021800086E090E00E94ED3390937604809375048E
:1021900046E050E0B8010E94BE330F5F1F4F65E577
:1021A00070E080E090E00E9414410E94B34189E217
:1021B0006816710408F058C099E289169104C0F4B9
:1021C000B80187E090E00E94ED339093760480930D
:1021D000750446E050E0B8010E94BE330F5F1F4F08
:1021E00065E570E080E090E00E9414410E94B341F8
:1021F000C701805591098997C0F4B80188E090E043
:102200000E94ED33909376048093750446E050E08D
:10221000B8010E94BE330F5F1F4F65E570E080E09C
:1022200090E00E9414410E94B341ACE8EA1AF10820
:10223000B9E2EB16F104C0F4B80189E090E00E9425
:10224000ED33909376048093750446E050E0B80136
:102250000E94BE330F5F1F4F65E570E080E090E0A5
:102260000E9414410E94B341EDE38E169104F8F4EC
:10227000FFEACF1AD1082FE1C216D104C0F4B80189
:1022800080E090E00E94ED33909376048093750493
:1022900046E050E0B8010E94BE330F5F1F4F65E576
:1022A00070E080E090E00E9414410E94B34135E666
:1022B0004316510408F090CE49E22416310408F088
:1022C0008BCE0E94BF300E944E3C0E94B93B0E94C0
:1022D000E23B8EEF91E10E94922F88EF80931705E9
:1022E000109218051092190510921A0510924705C0
:1022F00049E7E42E45E0F42E04E110E0D7016D91AA
:102300007D917D01072E000C880B990B28E730E0AA
:10231000A8010E945C3A0E5C1F4F0034B1E01B071D
:1023200069F70E94B3410E94B7358823E1F30E9408
:10233000E7348C0190937A04809379040E942134CD
:102340009C019093780480937704C8014497833864
:10235000910550F4C901845B91094F9728F40E94BC
:10236000393A0E94B34132CE0A5A11090338110595
:10237000D0F6245B31092F313105A8F6F501868DA1
:10238000978DD5018D939D935D01B7E6AB16B5E0B2
:10239000BB06A1F70E94393A0E94303C0E94A84136
:1023A00068EB7BE080E090E00E941441F3CB0451A5
:1023B00011090338110508F0EACD245B31092F31EA
:1023C000310508F4E5CBE3CD0E94393A0E942B3A5F
:1023D0000E94B34160ED77E080E090E00E941441FC
:1023E00034CCC90188579109899708F053C484E017
:1023F00090E00E941E360E94F7350E94D0350E9460
:10240000B3410E94B7358823E1F30E94E7348C0181
:1024100090937A04809379040E9421349C019093D4
:10242000780480937704C80144978338910530F489
:10243000C901845B91094F9708F4AACB0A5A110984
:1024400003381105F0F6245B31092F313105C8F648
:102450000E94393A0E94AB320E94B34100E010E082
:102460000E94B7358823E1F30E94E7347C01909302
:102470007A04809379040E9421346C01909378044B
:10248000809377043701EEEB6E1A71089C012D578B
:102490003109490135E66316710480F449E2841676
:1024A000910408F475CB0F97899740F40E94393A4C
:1024B0000E94AB320E94B34100E010E0C701449794
:1024C0005C01C6010F97899708F056C099E2A916DA
:1024D000B104C0F4B80181E090E00E94953B909374
:1024E00076048093750444E050E0B8010E94BE3346
:1024F0000F5F1F4F65E570E080E090E00E9414419F
:102500000E94B341C701805591098997C0F4B80171
:1025100082E090E00E94953B90937604809375044E
:1025200044E050E0B8010E94BE330F5F1F4F65E5E5
:1025300070E080E090E00E9414410E94B341C70126
:102540008C5891098997C0F4B80183E090E00E940B
:10255000953B909376048093750444E050E0B80175
:102560000E94BE330F5F1F4F65E570E080E090E092
:102570000E9414410E94B3412601A6E44A1A510860
:10258000B9E24B16510408F056C0E9E2AE16B104A8
:10259000C0F4B80184E090E00E94953B90937604EB
:1025A0008093750444E050E0B8010E94BE330F5F91
:1025B0001F4F65E570E080E090E00E9414410E94AA
:1025C000B341C701805591098997C0F4B80185E0EE
:1025D00090E00E94953B909376048093750444E0CC
:1025E00050E0B8010E94BE330F5F1F4F65E570E0F9
:1025F00080E090E00E9414410E94B341C7018C58D2
:1026000091098997C0F4B80186E090E00E94953B5B
:10261000909376048093750444E050E0B8010E94E2
:10262000BE330F5F1F4F65E570E080E090E00E94D1
:1026300014410E94B341F9E28F16910408F058C08A
:1026400029E2A216B104C0F4B80187E090E00E942C
:10265000953B909376048093750444E050E0B80174
:102660000E94BE330F5F1F4F65E570E080E090E091
:102670000E9414410E94B341C70180559109899776
:10268000C0F4B80188E090E00E94953B90937604F6
:102690008093750444E050E0B8010E94BE330F5FA0
:1026A0001F4F65E570E080E090E00E9414410E94B9
:1026B000B3413CE8E31AF10849E2E416F104C0F43E
:1026C000B80189E090E00E94953B90937604809356
:1026D000750444E050E0B8010E94BE330F5F1F4F05
:1026E00065E570E080E090E00E9414410E94B341F3
:1026F0008DE3A816B104F8F49FEAC91AD108AFE136
:10270000CA16D104C0F4B80180E090E00E94953B65
:10271000909376048093750444E050E0B8010E94E1
:10272000BE330F5F1F4F65E570E080E090E00E94D0
:1027300014410E94B341B5E66B16710408F090CEC7
:10274000E9E24E16510408F08BCE81E04091670516
:10275000509168052091490530914A054217530769
:1027600009F080E04091690550916A0520914B0580
:1027700030914C054217530709F080E040916B05FA
:1027800050916C0520914D0530914E05421753072D
:1027900009F080E040916D0550916E0520914F0544
:1027A000309150054217530709F067C2882309F496
:1027B00064C20E94393A0E94B2330E94B34160ED74
:1027C00077E080E090E00E9414410E94BF3084E0F6
:1027D00090E00E941E360E94F7350E94D0350E947C
:1027E000B7358823E1F30E94E7348C0190937A0493
:1027F000809379040E9421349C0190937804809303
:102800007704C80144978338910538F4A901445BE3
:1028100051094F31510508F4BBC90A5A110903384F
:10282000110508F01EC2245B31092F313105B8F6BD
:1028300038EF332E0E94AB320E94B34100E010E02B
:102840000E94B7358823E1F30E94E7347C0190931E
:102850007A04809379040E9421346C019093780467
:10286000809377043701FEEB6F1A71089C012D5796
:102870003109490135E66316710480F449E2841692
:10288000910408F485C90F97899740F40E94393A5A
:102890000E94AB320E94B34100E010E0C7014497B0
:1028A0005C01C6010F97899708F056C099E2A916F6
:1028B000B104C0F4B80181E090E00E94953B909390
:1028C00076048093750444E050E0B8010E94BE3362
:1028D0000F5F1F4F65E570E080E090E00E941441BB
:1028E0000E94B341C701805591098997C0F4B8018E
:1028F00082E090E00E94953B90937604809375046B
:1029000044E050E0B8010E94BE330F5F1F4F65E501
:1029100070E080E090E00E9414410E94B341C70142
:102920008C5891098997C0F4B80183E090E00E9427
:10293000953B909376048093750444E050E0B80191
:102940000E94BE330F5F1F4F65E570E080E090E0AE
:102950000E9414410E94B3412601A6E44A1A51087C
:10296000B9E24B16510408F056C0E9E2AE16B104C4
:10297000C0F4B80184E090E00E94953B9093760407
:102980008093750444E050E0B8010E94BE330F5FAD
:102990001F4F65E570E080E090E00E9414410E94C6
:1029A000B341C701805591098997C0F4B80185E00A
:1029B00090E00E94953B909376048093750444E0E8
:1029C00050E0B8010E94BE330F5F1F4F65E570E015
:1029D00080E090E00E9414410E94B341C7018C58EE
:1029E00091098997C0F4B80186E090E00E94953B78
:1029F000909376048093750444E050E0B8010E94FF
:102A0000BE330F5F1F4F65E570E080E090E00E94ED
:102A100014410E94B341F9E28F16910408F058C0A6
:102A200029E2A216B104C0F4B80187E090E00E9448
:102A3000953B909376048093750444E050E0B80190
:102A40000E94BE330F5F1F4F65E570E080E090E0AD
:102A50000E9414410E94B341C70180559109899792
:102A6000C0F4B80188E090E00E94953B9093760412
:102A70008093750444E050E0B8010E94BE330F5FBC
:102A80001F4F65E570E080E090E00E9414410E94D5
:102A9000B3413CE8E31AF10849E2E416F104C0F45A
:102AA000B80189E090E00E94953B90937604809372
:102AB000750444E050E0B8010E94BE330F5F1F4F21
:102AC00065E570E080E090E00E9414410E94B3410F
:102AD0008DE3A816B104F8F49FEAC91AD108AFE152
:102AE000CA16D104C0F4B80180E090E00E94953B82
:102AF000909376048093750444E050E0B8010E94FE
:102B0000BE330F5F1F4F65E570E080E090E00E94EC
:102B100014410E94B341B5E66B16710408F090CEE3
:102B2000E9E24E16510408F08BCE0E94BF300E949D
:102B30004E3C0E94B93B0E94E23B8EEF91E10E9425
:102B4000922F3092170510921805109219051092C5
:102B50001A05109247056091670570916805072E68
:102B6000000C880B990B28E730E04CE350E00E9402
:102B70005C3A6091690570916A05072E000C880B1C
:102B8000990B28E730E04EE650E00E945C3A6091F5
:102B90006B0570916C05072E000C880B990B28E7CC
:102BA00030E040EA50E00E945C3A60916D0570911F
:102BB0006E05072E000C880B990B28E730E042EDDC
:102BC00050E00E945C3A0E94B3410E94B7358823CE
:102BD000E1F30E94E7348C0190937A0480937904A6
:102BE0000E9421349C019093780480937704C8015B
:102BF00044978338910550F4C901845B91094F973C
:102C000028F40E94393A0E94B34114CE0A5A11099D
:102C100003381105D0F6245B31092F313105A8F6B0
:102C2000809167059091680590934A0580934905C6
:102C30008091690590916A0590934C0580934B05AE
:102C400080916B0590916C0590934E0580934D0596
:102C500080916D0590916E059093500580934F057E
:102C600099CB8338910508F0BACD245B31092F3117
:102C7000310510F40C94C80DB2CD0E94393A0E946F
:102C80002B3A0E94B34160ED77E080E090E00E9433
:102C90001441E0CB0A5A11090338110510F00C94C5
:102CA000CE0D245B31092F31310510F00C94CE0D7F
:102CB0000E94B34182E090E00E945E3C0E94B735E2
:102CC0008823E1F30E94E7348C0190937A04809387
:102CD00079040E9421349C019093780480937704B6
:102CE000C80144978338910540F4C901845B910978
:102CF0004F9710F40C94C80D04C08931914008F02E
:102D00008BC6C901CC97899708F0FFC385E090E096
:102D10000E941E360E94B3410E94B735882361F09D
:102D20000E94E73490937A04809379040E942134BE
:102D300090937804809377048091790490917A0439
:102D40009C01245131092338310550F42091770436
:102D500030917804245B31092F31310508F4A8CF74
:102D60008A5A910983389105B8F680917704909139
:102D70007804845B91094F9778F60E94B3410E94D2
:102D8000393A0E94AB3200E010E00E94B735882348
:102D9000E1F30E94E7347C0190937A0480937904F4
:102DA0000E9421346C01909378048093770437015A
:102DB0002EEB621A71088D5791094C0195E6691640
:102DC000710488F4A9E28A16910408F471CFC6014F
:102DD0000F97899740F40E94393A0E94AB320E94C3
:102DE000B34100E010E0F70174975F01C6010F974F
:102DF000899708F056C0F9E2AF16B104C0F4B801E3
:102E000081E090E00E9444369093760480937504AC
:102E100045E050E0B8010E94BE330F5F1F4F65E5EB
:102E200070E080E090E00E9414410E94B341C7012D
:102E3000805591098997C0F4B80182E090E00E9422
:102E40004436909376048093750445E050E0B801D1
:102E50000E94BE330F5F1F4F65E570E080E090E099
:102E60000E9414410E94B341C7018C58910989976F
:102E7000C0F4B80183E090E00E9444369093760459
:102E80008093750445E050E0B8010E94BE330F5FA7
:102E90001F4F65E570E080E090E00E9414410E94C1
:102EA000B341260126E4421A510839E2431651047F
:102EB00008F056C049E2A416B104C0F4B80184E099
:102EC00090E00E944436909376048093750445E028
:102ED00050E0B8010E94BE330F5F1F4F65E570E000
:102EE00080E090E00E9414410E94B341C7018055E8
:102EF00091098997C0F4B80185E090E00E944436BA
:102F0000909376048093750445E050E0B8010E94E8
:102F1000BE330F5F1F4F65E570E080E090E00E94D8
:102F200014410E94B341C7018C5891098997C0F49C
:102F3000B80186E090E00E94443690937604809336
:102F4000750445E050E0B8010E94BE330F5F1F4F8B
:102F500065E570E080E090E00E9414410E94B3417A
:102F600089E28816910408F058C099E2A916B104C4
:102F7000C0F4B80187E090E00E9444369093760454
:102F80008093750445E050E0B8010E94BE330F5FA6
:102F90001F4F65E570E080E090E00E9414410E94C0
:102FA000B341C701805591098997C0F4B80188E001
:102FB00090E00E944436909376048093750445E037
:102FC00050E0B8010E94BE330F5F1F4F65E570E00F
:102FD00080E090E00E9414410E94B341ACE8EA1AFC
:102FE000F108B9E2EB16F104C0F4B80189E090E011
:102FF0000E944436909376048093750445E050E037
:10300000B8010E94BE330F5F1F4F65E570E080E09E
:1030100090E00E9414410E94B341EDE3AE16B1046A
:10302000F8F4FFEACF1AD1082FE1C216D104C0F498
:10303000B80180E090E00E9444369093760480933B
:10304000750445E050E0B8010E94BE330F5F1F4F8A
:1030500065E570E080E090E00E9414410E94B34179
:1030600035E66316710408F090CE49E24416510427
:1030700008F08BCE21E5A22E25E0B22EC50121E07D
:10308000FC01668D778D029640815181641775072A
:1030900009F020E0A5E08B359A0791F7222309F487
:1030A00027C20E94393A0E94B2330E94B34160EDB8
:1030B00077E080E090E00E94144185E090E00E947B
:1030C0001E360E94B7358823E1F30E94E7348C0155
:1030D00090937A04809379040E9421349C01909308
:1030E000780480937704C8018A5A9109833891053E
:1030F00008F0F1C1C901845B91094F9708F0EBC159
:103100000E94AB320E94B34100E010E00E94B7354C
:103110008823E1F30E94E7347C0190937A04809342
:1031200079040E9421346C01909378048093770491
:103130002701BEEB4B1A5108FC01ED57F1093F0185
:10314000F5E64F16510480F429E26216710408F482
:10315000AFCD0F97899740F40E94393A0E94AB3265
:103160000E94B34100E010E0C70144974C01C60142
:103170000F97899708F056C099E289169104C0F418
:10318000B80181E090E00E944436909376048093E9
:10319000750445E050E0B8010E94BE330F5F1F4F39
:1031A00065E570E080E090E00E9414410E94B34128
:1031B000C701805591098997C0F4B80182E090E079
:1031C0000E944436909376048093750445E050E065
:1031D000B8010E94BE330F5F1F4F65E570E080E0CD
:1031E00090E00E9414410E94B341C7018C5891099C
:1031F0008997C0F4B80183E090E00E944436909330
:1032000076048093750445E050E0B8010E94BE3317
:103210000F5F1F4F65E570E080E090E00E94144171
:103220000E94B3411601A6E42A1A3108B9E22B160E
:10323000310408F056C0E9E28E169104C0F4B801DA
:1032400084E090E00E944436909376048093750465
:1032500045E050E0B8010E94BE330F5F1F4F65E5A7
:1032600070E080E090E00E9414410E94B341C701E9
:10327000805591098997C0F4B80185E090E00E94DB
:103280004436909376048093750445E050E0B8018D
:103290000E94BE330F5F1F4F65E570E080E090E055
:1032A0000E9414410E94B341C7018C58910989972B
:1032B000C0F4B80186E090E00E9444369093760412
:1032C0008093750445E050E0B8010E94BE330F5F63
:1032D0001F4F65E570E080E090E00E9414410E947D
:1032E000B341F9E26F16710408F058C029E2821662
:1032F0009104C0F4B80187E090E00E9444369093B6
:1033000076048093750445E050E0B8010E94BE3316
:103310000F5F1F4F65E570E080E090E00E94144170
:103320000E94B341C701805591098997C0F4B80143
:1033300088E090E00E944436909376048093750470
:1033400045E050E0B8010E94BE330F5F1F4F65E5B6
:1033500070E080E090E00E9414410E94B3413CE89C
:10336000E31AF10849E2E416F104C0F4B80189E077
:1033700090E00E944436909376048093750445E073
:1033800050E0B8010E94BE330F5F1F4F65E570E04B
:1033900080E090E00E9414410E94B3418DE38816C2
:1033A0009104F8F49FEAC91AD108AFE1CA16D10412
:1033B000C0F4B80180E090E00E9444369093760417
:1033C0008093750445E050E0B8010E94BE330F5F62
:1033D0001F4F65E570E080E090E00E9414410E947C
:1033E000B341B5E64B16510408F090CEE9E22E1633
:1033F000310408F08BCE0E94BF300E944E3C0E94E8
:10340000B93B0E94E23B8EEF91E10E94922FF8EFD0
:10341000F0931705109218051092190510921A05CD
:10342000109247059FE6E92E95E0F92E08E210E09C
:10343000D7016D917D917D01072E000C880B990BB2
:1034400028E730E0A8010E945C3A0E5C1F4F023270
:10345000B1E01B0769F70E94B3410E94B73588238A
:10346000E1F30E94E7348C0190937A04809379040D
:103470000E9421349C019093780480937704C801C2
:1034800044978338910550F4C901845B91094F97A3
:1034900028F40E94393A0E94B34132CE0A5A1109E7
:1034A00003381105D0F6245B31092F313105A8F618
:1034B000F501868D978DD5018D939D935D01BBE5BB
:1034C000AB16B5E0BB06A1F70E94393A0E94303C2A
:1034D0000E94A8419AC2045111090338110508F04D
:1034E000F0CD245B31092F31310508F4E1CBE9CD72
:1034F0000E94393A0E942B3A0E94B34160ED77E076
:1035000080E090E00E9414413CCCC90188579109A9
:10351000899708F081C20E94B341009187051091FC
:1035200088050E94F82FE8EFE09317051092180520
:103530001092190510921A051092470548E250E0C2
:103540006EE077E288E392E00E94C7274CE350E008
:103550006EE077E28EE492E00E94C7278EEF91E161
:103560000E94922FB801110F880B990B2AE530E0C9
:103570004EE057E20E945C3A8AE196E00E94922F68
:1035800046E950E06EE077E281E692E00E94C727CC
:103590000E94F7350E94D0350E94B7358823E1F3A9
:1035A0000E94E7348C0190937A04809379040E94FE
:1035B00021349C019093780480937704C801449748
:1035C0008338910530F4C901845B91094F9708F461
:1035D0006FCB0A5A110903381105F0F6245B310943
:1035E0002F313105C8F60E94B3410E94AB3200E092
:1035F00010E00E94B7358823E1F30E94E7347C0194
:1036000090937A04809379040E9421346C01909302
:103610007804809377043701FEEB6F1A71089C01E0
:103620002D573109490135E66316710480F449E2EA
:103630008416910408F43CCB0F97899740F40E94BC
:10364000393A0E94AB320E94B34100E010E0C7015A
:1036500044975C01C6010F97899708F056C099E21C
:10366000A916B104C0F4B80181E090E00E940B3CBF
:1036700090937604809375040530110514F40E942C
:1036800096410F5F1F4F65E570E080E090E00E947B
:1036900014410E94B341C701805591098997C0F434
:1036A000B80182E090E00E940B3C909376048093F6
:1036B00075040530110514F40E9496410F5F1F4FE9
:1036C00065E570E080E090E00E9414410E94B34103
:1036D000C7018C5891098997C0F4B80183E090E044
:1036E0000E940B3C9093760480937504053011057D
:1036F00014F40E9496410F5F1F4F65E570E080E073
:1037000090E00E9414410E94B3412601A6E44A1AA7
:103710005108B9E24B16510408F056C0E9E2AE1662
:10372000B104C0F4B80184E090E00E940B3C909397
:103730007604809375040530110514F40E949641B7
:103740000F5F1F4F65E570E080E090E00E9414413C
:103750000E94B341C701805591098997C0F4B8010F
:1037600085E090E00E940B3C909376048093750472
:103770000530110514F40E9496410F5F1F4F65E557
:1037800070E080E090E00E9414410E94B341C701C4
:103790008C5891098997C0F4B80186E090E00E94A6
:1037A0000B3C90937604809375040530110514F456
:1037B0000E9496410F5F1F4F65E570E080E090E04A
:1037C0000E9414410E94B341F9E28F16910408F05F
:1037D00058C029E2A216B104C0F4B80187E090E015
:1037E0000E940B3C9093760480937504053011057C
:1037F00014F40E9496410F5F1F4F65E570E080E072
:1038000090E00E9414410E94B341C7018055910984
:103810008997C0F4B80188E090E00E940B3C909337
:103820007604809375040530110514F40E949641C6
:103830000F5F1F4F65E570E080E090E00E9414414B
:103840000E94B3413CE8E31AF10849E2E416F104AE
:10385000C0F4B80189E090E00E940B3C909376049C
:10386000809375040530110514F40E9496410F5F92
:103870001F4F65E570E080E090E00E9414410E94D7
:10388000B3418DE3A816B104F8F49FEAC91AD10830
:10389000AFE1CA16D104C0F4B80180E090E00E9404
:1038A0000B3C90937604809375040530110514F455
:1038B0000E9496410F5F1F4F65E570E080E090E049
:1038C0000E9414410E94B341B5E66B16710408F0E2
:1038D00090CEE9E24E16510408F08BCE0E94B3411F
:1038E00000918505109186050E94F82F0E94A13055
:1038F000F8EFF09317051092180510921905109221
:103900001A05109247058AE196E00E94922F42E341
:1039100050E06EE077E289E692E00E94C7278EEFE2
:1039200091E10E94922FB801110F880B990B26E4A8
:1039300030E04EE057E20E945C3A8AE196E00E9455
:10394000922F47E850E06EE077E281E692E00E9435
:10395000C7270E94E23B0E94B93B0E94B7358823EB
:10396000E1F30E94E7348C0190937A048093790408
:103970000E9421349C019093780480937704C801BD
:1039800044978338910540F4C901845B91094F97AE
:1039900018F40E94393A27CE0A5A11090338110542
:1039A000E0F6245B31092F313105B8F60E94A841B9
:1039B0008091850590918605909388058093870571
:1039C00090938A05809389050E94F82F28EF209311
:1039D0001705109218051092190510921A051092E9
:1039E00047058AE196E00E94922F4EE650E06EE095
:1039F00077E289E792E00E94C72742E850E06EE054
:103A000077E28BE892E00E94C72768EB7BE080E0DA
:103A100090E00E9414414EC90A5A11090338110559
:103A200008F04CC9245B31092F31310508F046C933
:103A30000E94B3410E94A13038EF309317051092D5
:103A400018051092190510921A051092470544E1C5
:103A500050E06EE077E280EA92E00E94C72746ECF1
:103A60004093170518E11093180524E630E04CE266
:103A700051E06CE370E084E190E00E94EA2E86EC75
:103A8000809317051093180520EA30E04CE251E0CE
:103A900068E770E084E190E00E94EA2E0E94F7352A
:103AA00082EA91E00E94922F96EC90931905109370
:103AB0001A0510924705109217058FE1809318059B
:103AC00049E450E06EE077E28DEA92E00E94C72779
:103AD00045E850E06EE077E280EC92E00E94C72774
:103AE0000E94B7358823E1F30E94E7348C0190935C
:103AF0007A04809379040E9421349093780480930F
:103B00007704045111090338110550F79C01245B17
:103B100031092F31310508F4CBC8E2CF2C583109D7
:103B20002333310510F00C94AB0D0E94B34180910A
:103B3000890590918A05909388058093870584E094
:103B400090E00E941E360E94B7358823E1F30E9460
:103B5000E7348C0190937A04809379040E94213495
:103B60009C019093780480937704C801449783382C
:103B7000910558F4C901845B91094F9730F40E9474
:103B8000B3410E94C8300C94AB0D0A5A1109033896
:103B90001105C8F6245B31092F313105A0F60E94CA
:103BA000B3410E94393A0E94AB3200E010E00E941B
:103BB000B73589878823D9F30E94E7347C01909335
:103BC0007A04809379040E9421346C0190937804E4
:103BD000809377043701AEEB6A1A7108FC01ED5748
:103BE000F1094F01F5E66F16710478F429E28216A7
:103BF000910428F20F97899740F40E94393A0E9465
:103C0000AB320E94B34100E010E0C70144975C0171
:103C1000C6010F97899708F056C099E2A916B1041A
:103C2000C0F4B80181E090E00E94953B9093760447
:103C30008093750444E050E0B8010E94BE330F5FEA
:103C40001F4F65E570E080E090E00E9414410E9403
:103C5000B341C701805591098997C0F4B80182E04A
:103C600090E00E94953B909376048093750444E025
:103C700050E0B8010E94BE330F5F1F4F65E570E052
:103C800080E090E00E9414410E94B341C7018C582B
:103C900091098997C0F4B80183E090E00E94953BB8
:103CA000909376048093750444E050E0B8010E943C
:103CB000BE330F5F1F4F65E570E080E090E00E942B
:103CC00014410E94B3412601A6E44A1A5108B9E200
:103CD0004B16510408F056C0E9E2AE16B104C0F428
:103CE000B80184E090E00E94953B90937604809325
:103CF000750444E050E0B8010E94BE330F5F1F4FCF
:103D000065E570E080E090E00E9414410E94B341BC
:103D1000C701805591098997C0F4B80185E090E00A
:103D20000E94953B909376048093750444E050E0A4
:103D3000B8010E94BE330F5F1F4F65E570E080E061
:103D400090E00E9414410E94B341C7018C58910930
:103D50008997C0F4B80186E090E00E94953B90936B
:103D600076048093750444E050E0B8010E94BE33AD
:103D70000F5F1F4F65E570E080E090E00E94144106
:103D80000E94B341F9E28F16910408F058C029E26D
:103D9000A216B104C0F4B80187E090E00E94953B00
:103DA000909376048093750444E050E0B8010E943B
:103DB000BE330F5F1F4F65E570E080E090E00E942A
:103DC00014410E94B341C701805591098997C0F4FD
:103DD000B80188E090E00E94953B90937604809330
:103DE000750444E050E0B8010E94BE330F5F1F4FDE
:103DF00065E570E080E090E00E9414410E94B341CC
:103E00003CE8E31AF10849E2E416F104C0F4B80111
:103E100089E090E00E94953B90937604809375042E
:103E200044E050E0B8010E94BE330F5F1F4F65E5CC
:103E300070E080E090E00E9414410E94B3418DE365
:103E4000A816B104F8F49FEAC91AD108AFE1CA165E
:103E5000D104C0F4B80180E090E00E94953B9093BB
:103E600076048093750444E050E0B8010E94BE33AC
:103E70000F5F1F4F65E570E080E090E00E94144105
:103E80000E94B341B5E66B16710408F090CEE9E2EA
:103E90004E16510408F08BCE81E040916705509199
:103EA00068052091490530914A054217530709F0EA
:103EB00080E04091690550916A0520914B05309151
:103EC0004C054217530709F080E040916B05509173
:103ED0006C0520914D0530914E054217530709F0AE
:103EE00080E040916D0550916E0520914F05309115
:103EF00050054217530709F0CCC6882309F4C9C6F8
:103F00000E94393A0E94F82F88EF8093170510928B
:103F100018051092190510921A05109247058AE1AA
:103F200096E00E94922F4EE650E06EE077E28CEC35
:103F300092E00E94C72781E0809374040E94A84108
:103F400060ED77E080E090E00E9414410E94F82F3D
:103F50001092190510921A05109247058FEF809361
:103F60001705809318058AE196E00E94922F0E941F
:103F7000893947E050E069E970E00E94C7270E9454
:103F8000F7390E94705B27E030E041E050E00E948A
:103F90005C3A47E050E06CE270E08AED92E0F7D7DF
:103FA00082EA91E00E94922F45E050E066E270E0E4
:103FB0008CED92E0ECD70E942F39BC018EEA94E0A0
:103FC0000E940E3D42E050E060E070E0CE010196BC
:103FD0000E94EF38BE016F5F7F4F86EC94E00E9435
:103FE000383DCE0101960E94713D45E050E063E00E
:103FF00070E0CE0101960E94EF38BE016F5F7F4FE7
:1040000080EC94E00E94383DCE0101960E94713D03
:1040100048E050E066E070E0CE0101960E94EF3883
:10402000BE016F5F7F4F8AEB94E00E94383DCE0166
:1040300001960E94713D8EEF91E10E94922F07E060
:104040000093170510EE109318056AEB74E0CE018B
:1040500001960E94763D60EE70E0CE0101960E94CE
:104060007036CE0101960E94713D60EC74E0CE0185
:1040700001960E94763D60E870E0CE0101960E94B4
:104080007036CE0101960E94713D66EC74E0CE015F
:1040900001960E94763D60E270E0CE0101960E949A
:1040A0007036CE0101960E94713D00931705109362
:1040B000180565E570E080E790E00E94483B0093BA
:1040C00017051093180569E670E080E790E00E94FC
:1040D000483B009317051093180565E570E080EDE7
:1040E00090E00E94483B009317051093180569E67D
:1040F00070E080ED90E00E94483B06EC00931705CD
:1041000018E1109318052CED30E04CE251E064EB1F
:1041100070E084E190E00E94EA2E10921705109260
:1041200018050093190510931A05109247058AE1A6
:1041300096E00E94922F41EC50E06EE077E28EED27
:1041400092E025D707E080EED82E1FEF0E942F398E
:10415000BC018091D0049091D104892B51F4611558
:10416000710519F0DB018C910DC0B985B11118C131
:1041700012C08091CC049091CD046115710531F489
:10418000FC018081882309F40BC105C00E94435EB5
:10419000892B09F405C10E942F39BC018EEA94E0F5
:1041A0000E940E3D42E050E060E070E0CE010196DA
:1041B0000E94EF38BE016F5F7F4F86E994E00E9456
:1041C000383DCE0101960E94713D45E050E063E02C
:1041D00070E0CE0101960E94EF38BE016F5F7F4F05
:1041E00080E994E00E94383DCE0101960E94713D25
:1041F00048E050E066E070E0CE0101960E94EF38A2
:10420000BE016F5F7F4F8AE894E00E94383DCE0187
:1042100001960E94713D8EEF91E10E94922F0093D2
:104220001705D09218051092190510921A051092D0
:1042300047056AE874E0CE0101960E94763D60EE83
:1042400070E0CE0101960E947036CE0101960E9468
:10425000713D60E974E080EC94E00E94DC3C8111E7
:1042600016C060E974E0CE0101960E94763D60E8D8
:1042700070E0CE0101960E947036CE0101960E9438
:10428000713D60E974E080EC94E00E94233D66E9B2
:1042900074E086EC94E00E94DC3C811116C066E973
:1042A00074E0CE0101960E94763D60E270E0CE019E
:1042B00001960E947036CE0101960E94713D66E91A
:1042C00074E086EC94E00E94233D0E948939BC0191
:1042D00084E894E00E940E3D6AE070E080E090E0A7
:1042E0000E94144164E874E084EB94E00E94DC3C9A
:1042F00081110FC010931705109318058AE196E0FD
:104300000E94922F0E94893947E050E069E970E0ED
:104310003ED60E94F7394B015C01609370047093A4
:10432000710480937204909373046AE070E080E0FB
:1043300090E00E941441A501940160916C04709179
:104340006D0480916E0490916F040E94D959882366
:10435000D1F010931705109318058AE196E00E949A
:10436000922FC501B4010E94705B27E030E041E06C
:1043700050E00E945C3A80926C0490926D04A0928E
:104380006E04B0926F046AE070E080E090E00E94FA
:1043900014410E942F39BC018CEC94E00E940E3D28
:1043A0000E94B735882309F4D1CE0E94E7347C01FE
:1043B00090937A04809379040E9421349093780436
:1043C00080937704F4E1EF1AF10829E1E21621E085
:1043D000F20608F0BBCE9C01245B3109293231057D
:1043E00008F0B4CE0E94B3410E94AB3200E010E06E
:1043F0000E94B7358823E1F30E94E7347C01909353
:104400007A04809379040E9421346C01909378049B
:104410008093770437013EEB631A71088D57910939
:104420004C0195E66916710498F4A9E28A16910484
:1044300018F40E94B3418ACDC6010F97899740F4C2
:104440000E94393A0E94AB320E94B34100E010E072
:10445000F70174975F01C6010F97899708F056C05E
:10446000F9E2AF16B104C0F4B80181E090E00E9417
:104470004436909376048093750445E050E0B8018B
:104480000E94BE330F5F1F4F65E570E080E090E053
:104490000E9414410E94B341C70180559109899738
:1044A000C0F4B80182E090E00E9444369093760414
:1044B0008093750445E050E0B8010E94BE330F5F61
:1044C0001F4F65E570E080E090E00E9414410E947B
:1044D000B341C7018C5891098997C0F4B80183E0B2
:1044E00090E00E944436909376048093750445E0F2
:1044F00050E0B8010E94BE330F5F1F4F65E570E0CA
:1045000080E090E00E9414410E94B341260126E41D
:10451000421A510839E24316510408F056C049E2E4
:10452000A416B104C0F4B80184E090E00E944436BF
:10453000909376048093750445E050E0B8010E94A2
:10454000BE330F5F1F4F65E570E080E090E00E9492
:1045500014410E94B341C701805591098997C0F465
:10456000B80185E090E00E944436909376048093F1
:10457000750445E050E0B8010E94BE330F5F1F4F45
:1045800065E570E080E090E00E9414410E94B34134
:10459000C7018C5891098997C0F4B80186E090E072
:1045A0000E944436909376048093750445E050E071
:1045B000B8010E94BE330F5F1F4F65E570E080E0D9
:1045C00090E00E9414410E94B34189E28816910450
:1045D00008F058C099E2A916B104C0F4B80187E008
:1045E00090E00E944436909376048093750445E0F1
:1045F00050E0B8010E94BE330F5F1F4F65E570E0C9
:1046000080E090E00E9414410E94B341C7018055B0
:1046100091098997C0F4B80188E090E00E9444367F
:10462000909376048093750445E050E0B8010E94B1
:10463000BE330F5F1F4F65E570E080E090E00E94A1
:1046400014410E94B341ACE8EA1AF108B9E2EB1652
:10465000F104C0F4B80189E090E00E9444369093E0
:1046600076048093750445E050E0B8010E94BE33A3
:104670000F5F1F4F65E570E080E090E00E941441FD
:104680000E94B341EDE3AE16B104F8F4FFEACF1A8D
:10469000D1082FE1C216D104C0F4B80180E090E047
:1046A0000E944436909376048093750445E050E070
:1046B000B8010E94BE330F5F1F4F65E570E080E0D8
:1046C00090E00E9414410E94B34135E663167104E4
:1046D00008F08ECE49E24416510408F089CE81E5F7
:1046E00095E021E0FC01668D778D02964081518135
:1046F0006417750709F020E0A5E08B359A0791F75C
:10470000222309F4BFC20E94393A109274040E9415
:10471000F82F88EF8093170510921805109219054D
:1047200010921A05109247058AE196E00E94922F96
:104730004EE650E06EE077E285EE92E028D40E94EB
:10474000A84168EE73E080E090E00E94144100917F
:104750008705109188050E94A1306801412C512CD9
:104760003201C6010D2C000CAA0BBB0B8C879D8758
:10477000AE87BF87D7FCA6C01C141D040CF041C037
:104780008AE196E00E94922F48E250E06EE077E2E4
:1047900086EF92E0FCD34CE350E06EE077E285E0F8
:1047A00093E0F5D398EF90931705109218051092A7
:1047B000190510921A05109247058EEF91E10E949B
:1047C000922F2EE630E04EE057E26C857D858E8597
:1047D0009F85640D751D861D971D0E945C3A8AE1B8
:1047E00096E00E94922F4AEA50E06EE077E281E67E
:1047F00092E0CDD368EE73E080E090E00E94144137
:1048000025C0C114D10411F50E94F82F88EF8093C0
:104810001705109218051092190510921A0510929A
:1048200047058AE196E00E94922F4EE650E06EE046
:1048300077E281E193E0ABD3A1E0A09374040E94FE
:10484000A84168EB7BE080E090E07ECB8DE00E94A9
:104850008140892BB1F46AE070E080E090E00E9432
:1048600014418DE00E948140892B59F40E94BF3091
:1048700086E090E00E941E360E94F7350E94D035F7
:1048800021C0B1E0CB1AD108E1E04E1A510861080D
:10489000710870CF0E94E7348C0190937A04809362
:1048A00079040E9421349C019093780480937704CA
:1048B000C80144978338910550F00A5A110903380A
:1048C000110560F00E94B7358823E1F3E3CFC901F9
:1048D000845B91094F9708F44FCFEFCF245B3109E8
:1048E0002F31310578F70E94393A0E94B3410E9476
:1048F000AB3200E010E00E94B7358823E1F30E945C
:10490000E7347C0190937A04809379040E942134E7
:104910005C01909378048093770497012E5B3109B2
:1049200038872F839C012D5731093B872A872F8198
:1049300038852536310598F42A853B85293231059D
:1049400018F40E94B34118CF0F97899740F40E9442
:10495000393A0E94AB320E94B34100E010E0C70137
:1049600044974C01C5010F97899708F056C099E20A
:1049700089169104C0F4B80181E090E00E94ED3303
:10498000909376048093750446E050E0B8010E944D
:10499000BE330F5F1F4F65E570E080E090E00E943E
:1049A00014410E94B341C701805591098997C0F411
:1049B000B80182E090E00E94ED33909376048093FA
:1049C000750446E050E0B8010E94BE330F5F1F4FF0
:1049D00065E570E080E090E00E9414410E94B341E0
:1049E000C7018C5891098997C0F4B80183E090E021
:1049F0000E94ED33909376048093750446E050E076
:104A0000B8010E94BE330F5F1F4F65E570E080E084
:104A100090E00E9414410E94B3411501A6E42A1AB5
:104A20003108B9E22B16310408F056C0E9E28E16BF
:104A30009104C0F4B80184E090E00E94ED339093BB
:104A400076048093750446E050E0B8010E94BE33BE
:104A50000F5F1F4F65E570E080E090E00E94144119
:104A60000E94B341C701805591098997C0F4B801EC
:104A700085E090E00E94ED33909376048093750476
:104A800046E050E0B8010E94BE330F5F1F4F65E55E
:104A900070E080E090E00E9414410E94B341C701A1
:104AA0008C5891098997C0F4B80186E090E00E9483
:104AB000ED33909376048093750446E050E0B8019E
:104AC0000E94BE330F5F1F4F65E570E080E090E00D
:104AD0000E9414410E94B3412A853B852932310549
:104AE00008F058C039E283169104C0F4B80187E099
:104AF00090E00E94ED33909376048093750446E035
:104B000050E0B8010E94BE330F5F1F4F65E570E0B3
:104B100080E090E00E9414410E94B341C70180559B
:104B200091098997C0F4B80188E090E00E94ED33C4
:104B3000909376048093750446E050E0B8010E949B
:104B4000BE330F5F1F4F65E570E080E090E00E948C
:104B500014410E94B3414CE8E41AF10889E2E816D6
:104B6000F104C0F4B80189E090E00E94ED33909325
:104B700076048093750446E050E0B8010E94BE338D
:104B80000F5F1F4F65E570E080E090E00E941441E8
:104B90000E94B3419DE389169104F8F4AFEAAA1A82
:104BA000B108BFE1AB16B104C0F4B80180E090E0F9
:104BB0000E94ED33909376048093750446E050E0B4
:104BC000B8010E94BE330F5F1F4F65E570E080E0C3
:104BD00090E00E9414410E94B3412F813885253610
:104BE000310508F088CE39E22316310408F083CE6F
:104BF0008BE595E061E0FC01468D578D02962081A2
:104C000031814217530709F060E045E08736940789
:104C100091F7662351F10E94393A0E94B2330E9403
:104C2000B3410E94F82F8AE196E00E94922F44E659
:104C300050E06EE077E286E293E0A9D142E850E0EE
:104C40006EE077E28DE293E0A2D10E94A84160ED90
:104C500077E080E090E00E9414410E94BF300E9403
:104C6000AE2F0E94D32F0C94AB0D0E94393A0E94B4
:104C70002B3A0E94B3416CED75E080E090E00E9419
:104C8000144135CE0E94393A0E94AB320E94A841AD
:104C9000ABCB0E94393A0E942B3A0E94B3416CED93
:104CA00075E080E090E00E9414410C94D31D682FC1
:104CB000892F0C94D93FCF92DF92EF92FF920F93FE
:104CC0001F93CF93DF938C017B01EA0169018091EF
:104CD0001B05813069F480912005909121059C018C
:104CE000201B310B841B950BE60169018B017C01B4
:104CF0008091240590E08032910508F02AC1FC01E2
:104D00008827EE56FF4F8F4F0C94215C612F70E087
:104D100082E00E94F53FB80183E00E94F53F6D2FCD
:104D200070E084E00E94F53FBE0185E00E94F53FFF
:104D30006F2D70E086E00E94F53FB70187E00E948A
:104D4000F53F6D2D70E071C08AE20E94AF3F612F88
:104D500080E00E94D93F602F80E00E94D93F6D2FF4
:104D600080E00E94D93F6C2F80E00E94D93F8BE207
:104D70000E94AF3F6F2D80E00E94D93F6E2D80E0F2
:104D80000E94D93F6D2D80E00E94D93F6C2D80E0BC
:104D90000E94D93FD3C07C2F6627600F711F84E427
:104DA0000E94F53FB70185E40E94F53FB60186E415
:104DB0000E94F53FB8018EE40E94F53FB7018FE4F1
:104DC00089C0B80180E20E94F53FB70181E20E94EC
:104DD000F53FB80180E50E94F53FB70182E50E94EA
:104DE000F53FBE0181E50E94F53FB60183E572C043
:104DF00060E070E082E00E94F53FB80183E00E942D
:104E0000F53F60E070E084E00E94F53FBE0185E080
:104E10000E94F53F60E070E086E00E94F53FB70138
:104E200087E00E94F53F60E070E088E00E94F53F77
:104E3000B60189E04FC08AE20E94AF3F802F0E94F6
:104E4000C43F8C2F0E94C43F8BE20E94AF3F8E2D47
:104E500070C08AE20E94AF3F8F2D0E94C43F8E2D0A
:104E60000E94C43F8D2D0E94C43F8C2D0E94C43FE0
:104E70008BE20E94AF3F812F0E94C43F802F0E948F
:104E8000C43F8D2F0E94C43F8C2F56C07C2F6627B5
:104E9000602B712B86E40E94F53FB60187E40E94E7
:104EA000F53FB70188E40EC0BE0186E30E94F53FDE
:104EB000B80187E30E94F53FB60188E30E94F53F01
:104EC000B70189E30E94F53FB80180E20E94F53FF7
:104ED000B70181E20E94F53F82E231C0B70182E072
:104EE0000E94F53FB80183E00E94F53FB60186E0DD
:104EF0000E94F53FBE0187E00E94F53F8FE01FC092
:104F00008AE20E94AF3F812F0E94C43F802F0E94FF
:104F1000C43F8D2F0E94C43F8C2F0E94C43F8BE260
:104F20000E94AF3F8F2D0E94C43F8E2D0E94C43F30
:104F30008D2D0E94C43F8C2D0E94C43F8CE2DF91D6
:104F4000CF911F910F91FF90EF90DF90CF900C9435
:104F5000AF3FDF91CF911F910F91FF90EF90DF90C6
:104F6000CF90089520911B058091200590912105F7
:104F700040911C0550911D05211102C09C0102C0E9
:104F80009A01AC0160E070E080E090E094CE2F9256
:104F90003F924F925F926F927F928F929F92AF92C9
:104FA000BF92CF92DF92EF92FF920F931F93CF9316
:104FB000DF93CDB7DEB72C970FB6F894DEBF0FBEE8
:104FC000CDBF8C017C876B871A01FC01019000200A
:104FD000E9F731979F01281B390B3C832B83809184
:104FE0001B05811132C06F307742A1F460911C051E
:104FF00070911D056F5F7F4F209143054B815C8150
:10500000249FC001259F900D1124DB01A81BB90B23
:10501000BC87AB87EB85FC85EE30F74209F059C0C1
:1050200080911C0590911D05A0911E05B0911F0552
:105030000196A11DB11D209143054B815C81249FE8
:105040006001259FD00C112432C08B859C858F3048
:105050009742A1F460912005709121056F5F7F4F09
:1050600020914305EB81FC812E9FC0012F9F900D65
:1050700011249B01281B390B3C872B874B855C85B2
:105080004E30574231F58091200590912105A09135
:105090002205B09123050196A11DB11D2091430564
:1050A000EB81FC812E9F60012F9FD00C11240D2CD1
:1050B000000CEE08FF08BC01CD016C197D098E09BA
:1050C0009F0922E030E040E050E00E94055C3C8710
:1050D0002B8718870F831E821D82ED81FE812B8115
:1050E0003C81E217F3070CF092C1809143052D81BA
:1050F0003E81829F2001839F500C11244B855C854B
:10510000440E551EAF81B8850D91B887AF83E091ED
:105110002B05F0912C05908180913705809589238E
:10512000808320914705809143059091440510E0CC
:105130002111F7C020911B05211176C09101290F83
:10514000311D21503109A201480F511D4150510913
:10515000B101C201B0DD80914305869586958695A3
:105160009091440520914505021B1109899FC001BA
:105170001124089F7001099FF00C189FF00C112456
:10518000B4E0EB0EF11CA12CB12C80914305869567
:105190008695869590914405899FC0011124A81693
:1051A000B90688F5E0914105F0914205EE0DFF1D2D
:1051B000E491F7E0CF2ED12C0E2F10E0C8010C2C7B
:1051C00002C0959587950A94E2F780FF08C0809108
:1051D000170590E0982F88272091180507C0809127
:1051E000190590E0982F882720911A05822B5FDD02
:1051F000E1E0CE1AD10810F72FEFE21AF20A3FEFE2
:10520000A31AB30AC2CFE0912B05F0912C0590812F
:1052100080913705892B8083A5DE4D815E814F5FAC
:105220005F4F5E834D8359CF8695869586952091F5
:105230004505021B1109899FC0011124089F6001C7
:10524000099FD00C189FD00C112454E0C50ED11C1E
:10525000A12CB12C20914305622F66956695669529
:1052600080914405689FC0011124A816B90658F61C
:1052700070E0C5010E94BC5B620D731DA201420F6C
:10528000511D415051099B01C20115DDE0904305BC
:10529000E694E694E694F12C460181E0881A9108A0
:1052A000E114F10499F1E0914105F0914205C40146
:1052B0008E0D9F1DE80FF91FE491612C712C0E2FAC
:1052C00010E0C801062C02C0959587950A94E2F774
:1052D00080FF08C08091170590E0982F88272091C3
:1052E000180507C08091190590E0982F8827209114
:1052F0001A05822BDCDC9FEF691A790AA8E06A168E
:105300007104F9F6B1E0EB1AF108CACF80914305B8
:1053100086958695869590E0C80ED91EA80EB91E72
:1053200099CF86958695869520914505021B110992
:10533000899FC0011124089F3001099F700C189F9C
:10534000700C1124E4E06E0E711C81018091440503
:1053500090E09801221933092817390708F053CF34
:10536000812C912CC12CD12CD8011196BA87A987F8
:105370008091430586958695869590E0C816D90656
:105380000CF040C0E0914105F0914205C601860D48
:10539000971DE80FF91FE4917201E80CF91C37E042
:1053A000A32EB12C2E2F30E03A83298389819A8154
:1053B0000A2C02C0959587950A94E2F780FF11C0E8
:1053C00029853A85A7014F5F5F4FB801C70173DC9C
:1053D0008091170590E0982F882720911805822B3F
:1053E00066DC31E0A31AB1084FEFE41AF40A5FEF6C
:1053F000A516B506D9F68FEFC81AD80A98E0890E17
:10540000911CB6CF680E791E0F5F1F4F9FCF2C9651
:105410000FB6F894DEBF0FBECDBFDF91CF911F91C5
:105420000F91FF90EF90DF90CF90BF90AF909F9043
:105430008F907F906F905F904F903F902F90089546
:105440008F929F92AF92BF92CF92DF92EF92FF9294
:105450006A017B0182B9CB01BA0120E130E040E072
:1054600050E00E94055C49015A0180E090E0DC01B7
:1054700088159905AA05BB050CF064C2E0912905C1
:10548000F0912A0530812091360520952323208331
:10549000E0912905F0912A05308120913605232BD2
:1054A0002083E0912905F0912A053081209136056D
:1054B000209523232083E0912905F0912A0530814E
:1054C00020913605232B2083E0912905F0912A05B0
:1054D000308120913605209523232083E0912905F2
:1054E000F0912A05308120913605232B2083E0910D
:1054F0002905F0912A053081209136052095232336
:105500002083E0912905F0912A053081209136050C
:10551000232B2083E0912905F0912A0530812091E9
:105520003605209523232083E0912905F0912A0553
:10553000308120913605232B2083E0912905F091BD
:105540002A05308120913605209523232083E09180
:105550002905F0912A05308120913605232B2083DF
:10556000E0912905F0912A0530812091360520959A
:1055700023232083E0912905F0912A053081209191
:105580003605232B2083E0912905F0912A053081EF
:1055900020913605209523232083E0912905F09161
:1055A0002A05308120913605232B2083E09129059F
:1055B000F0912A0530812091360520952323208300
:1055C000E0912905F0912A05308120913605232BA1
:1055D0002083E0912905F0912A053081209136053C
:1055E000209523232083E0912905F0912A0530811D
:1055F00020913605232B2083E0912905F0912A057F
:10560000308120913605209523232083E0912905C0
:10561000F0912A05308120913605232B2083E091DB
:105620002905F0912A053081209136052095232304
:105630002083E0912905F0912A05308120913605DB
:10564000232B2083E0912905F0912A0530812091B8
:105650003605209523232083E0912905F0912A0522
:10566000308120913605232B2083E0912905F0918C
:105670002A05308120913605209523232083E0914F
:105680002905F0912A05308120913605232B2083AE
:10569000E0912905F0912A05308120913605209569
:1056A00023232083E0912905F0912A053081209160
:1056B0003605232B2083E0912905F0912A053081BE
:1056C00020913605209523232083E0912905F09130
:1056D0002A05308120913605232B2083E09129056E
:1056E000F0912A05308120913605209523232083CF
:1056F000E0912905F0912A05308120913605232B70
:105700002083E0912905F0912A053081209136050A
:10571000209523232083E0912905F0912A053081EB
:1057200020913605232B2083E0912905F0912A054D
:10573000308120913605209523232083E09129058F
:10574000F0912A05308120913605232B2083E091AA
:105750002905F0912A0530812091360520952323D3
:105760002083E0912905F0912A05308120913605AA
:10577000232B2083E0912905F0912A053081209187
:105780003605209523232083E0912905F0912A05F1
:10579000308120913605232B2083E0912905F0915B
:1057A0002A05308120913605209523232083E0911E
:1057B0002905F0912A05308120913605232B20837D
:1057C000E0912905F0912A05308120913605209538
:1057D00023232083E0912905F0912A05308120912F
:1057E0003605232B2083E0912905F0912A0530818D
:1057F00020913605209523232083E0912905F091FF
:105800002A05308120913605232B2083E09129053C
:10581000F0912A053081209136052095232320839D
:10582000E0912905F0912A05308120913605232B3E
:105830002083E0912905F0912A05308120913605D9
:10584000209523232083E0912905F0912A053081BA
:1058500020913605232B2083E0912905F0912A051C
:10586000308120913605209523232083E09129055E
:10587000F0912A05308120913605232B2083E09179
:105880002905F0912A0530812091360520952323A2
:105890002083E0912905F0912A0530812091360579
:1058A000232B2083E0912905F0912A053081209156
:1058B0003605209523232083E0912905F0912A05C0
:1058C000308120913605232B2083E0912905F0912A
:1058D0002A05308120913605209523232083E091ED
:1058E0002905F0912A05308120913605232B20834C
:1058F000E0912905F0912A054081309136053095D7
:1059000034233083E0912905F0912A0520813091DC
:105910003605322B3083E0912905F0912A0540812C
:1059200030913605309534233083E0912905F0918C
:105930002A05208130913605322B30830196A11D36
:10594000B11D96CDD701C6018F709927AA27BB2715
:10595000892B8A2B8B2BE1F1C701B60120E130E0C6
:1059600040E050E00E94055CC12CD12C76016C1502
:105970007D058E059F0564F1E0912905F0912A05CA
:10598000308120913605209523232083E09129053D
:10599000F0912A05308120913605232B2083E09158
:1059A0002905F0912A053081209136052095232381
:1059B0002083E0912905F0912A0530812091360558
:1059C000232B20832FEFC21AD20AE20AF20ACFCF8A
:1059D000FF90EF90DF90CF90BF90AF909F908F900F
:1059E00008958F929F92AF92BF92CF92DF92EF92E3
:1059F000FF9269017A0182B968B9CA01B90120E14F
:105A000030E040E050E00E94055C49015A0180E02E
:105A100090E0DC0188159905AA05BB050CF034C19E
:105A2000E0912905F0912A053081209136052095D5
:105A300023232083E0912905F0912A0530812091CC
:105A40003605232B2083E0912905F0912A0530812A
:105A500020913605209523232083E0912905F0919C
:105A60002A05308120913605232B2083E0912905DA
:105A7000F0912A053081209136052095232320833B
:105A8000E0912905F0912A05308120913605232BDC
:105A90002083E0912905F0912A0530812091360577
:105AA000209523232083E0912905F0912A05308158
:105AB00020913605232B2083E0912905F0912A05BA
:105AC000308120913605209523232083E0912905FC
:105AD000F0912A05308120913605232B2083E09117
